:020000040800F2
:1000000060260020D50000088198000811710008C2
:1000100000000000000000000000000000000000E0
:10002000000000000000000000000000CBC5000838
:1000300000000000000000002DA70008FDE90008F6
:10004000E7000008E70000081BAF0008E700000811
:10005000E7000008912D0008A12D0008B12D00082F
:10006000E7000008E7000008E7000008D52C0008BA
:10007000E7000008E7000008E7000008E7000008C4
:10008000E7000008E7000008E700000800000000A3
:10009000E5EA0008E7000008E7000008E7000008BC
:1000A000E7000008E7000008E70000084DF400083A
:1000B000E7000008B5AE000800000000E7000008F7
:1000C0000348854600F0B2FF00480047B130010800
:1000D000602600200448804704480047FEE7FEE70A
:1000E000FEE7FEE7FEE7FEE791EA0008C100000830
:1000F00030B50B46014600202022012409E00D46C0
:10010000D5409D4205D31D469540491B2546954047
:1001100040191546521E002DF1DC30BD70B500248B
:100120002546002801DA01244042002901DA012590
:100130004942FFF7DDFFAC4200D04042002C00D026
:10014000494270BDF0B51FB40646002082B0054696
:100150004024019100901BE0019922460F46304651
:1001600000F052FD049A059B801A994110D3104665
:100170001946224600F038FD361A8F410197224673
:1001800001200021009F00F02FFD38184D41009004
:100190002046641E0028DFDC019B00982946324679
:1001A00007B0F0BDF0B51FB486B0002000900190FC
:1001B00002900698069980B204900798090C0204F0
:1001C0000014114307900027089D099806913E46A8
:1001D0003C4603900398A9B20204000C03900498D3
:1001E0002D0C154348430021224600F0FDFCC719A1
:1001F000714110340E46402CECDB3846029A00F078
:10020000F3FC009A019B80180090594102980191DB
:10021000103002904028CCDB00980BB0F0BD0346B4
:100220000B439B0703D009E008C9121F08C0042A2A
:10023000FAD203E00B780370401C491C521EF9D21D
:100240007047D2B201E00270401C491EFBD27047D9
:100250000022F6E710B513460A4604461946FFF792
:10026000F0FF204610BD30B505462A460B461078F3
:100270001C78521C5B1C002801D0A042F7D0002C37
:1002800003D0002802D06D1CEFE7284630BD10B522
:10029000044605E00B780370401C002B00D0491C7D
:1002A000521EF7D2204610BD421C0178401C002986
:1002B000FBD1801A704710B5002200E0521C835C0D
:1002C0008C5CA34201D1002BF8D1D8B2E1B2401A24
:1002D00010BD03460A780270401C491C002AF9D15F
:1002E0001846704730B505460020034600E05B1C09
:1002F000934205D2EC5CC85C201A01D1002CF6D1E7
:1003000030BD0321001D401E037812021A43491E0E
:10031000F9D51046704700000FB400B58DB00990B4
:100320000B9010A900200091C0430A9000200C906F
:1003300006480690064807906A4609A80F9900F0FB
:100340009DFC0DB008BC04B0184700009D0C0008CF
:10035000BD0C0008FFB50027FF4383B000205C6898
:1003600001909E681D46A9697F1C049888470090EB
:10037000296A88470028F6D10098401C0CD0032039
:1003800040028443002E19DD600614D500982B2806
:1003900009D02D280FD103E00020C04307B0F0BDE5
:1003A000012080020443A9697F1C04988847761EB7
:1003B0000090002E02DD0098302803D00598002818
:1003C00025D035E0012040020443A969761E7F1C38
:1003D000049888470090002E03DD782805D058281F
:1003E00003D00598002810D022E00598002801D0FD
:1003F00010281DD1012040028443A969761E7F1C6C
:10040000049888470090102002E0082000E00A20AD
:1004100005900DE0012149020C43059A0199761ED1
:10042000514308180190A9697F1C049888470090DF
:10043000002E05DD0599009800F00AFC0028E9DA95
:10044000E96904988847A00502D40120C043A5E7C4
:10045000E00722D1600611D56005019800D5404221
:1004600029680A1D2A600968220501D5087014E070
:10047000220701D5088010E008600EE02868011D01
:1004800029600068210502D50199017005E0210766
:10049000019901D5018000E0016038467EE770B522
:1004A00006460FF0A1F8046805460A2200213046EE
:1004B00000F016FC2C6070BDF8B502464A40D40F1F
:1004C00042004B0052085B089A4202D2024608469C
:1004D00011464A0023D0C30D4A00DDB2120EAD1AF8
:1004E000202D35DA49020126490AF6058A19002C21
:1004F00000D0524220214F1B1146B9402A4110180A
:10050000C20D9A4221D0002C17D0012D08DCDA054B
:10051000801AD20F8019D207DBB200F021FCF8BD9F
:10052000DA05801A012340001B06C01880185A42C1
:100530008018CA0F1043490007E04908C207114359
:10054000DA05801A80194008801800F001FCF8BD17
:1005500061000122511A001BF7E70122D207514026
:10056000AAE70122D2075040A6E7024670B54A40EA
:10057000D30FDB0740002DD04A002AD0010E140E05
:10058000000212020919400A520A8418E5010446C1
:100590005443000A120A2E045043A4194219200C95
:1005A000C543AA18120C0125AD03521C521912049E
:1005B0007F39240400D0521C104301D44000491E4E
:1005C000C2B20C06C0092018401C4008802A02D084
:1005D00003E0002070BD40084000002900DA002040
:1005E000184370BD70B502464A40D50F40004A001E
:1005F000ED0740085208002814D0002A12D0C40D7C
:10060000D30D41020120C0055202490A520AE41AE0
:10061000091812187D34914201D3641C00E049008E
:10062000002C01DA002070BD0023914201D3891A09
:100630000343400849000028F7D100290AD091421D
:1006400002D10121C90705E0914201D2012101E057
:100650000121C943E005C018401900F079FB70BDC5
:10066000420005D04200120E52428A4201DB0020B5
:100670007047C90508187047F0B507460846584046
:1006800087B0C00F049048000E4659004008490842
:10069000BC1A884105D2384631461E4617460B46DD
:1006A00002465800400810434CD0300D03904005DE
:1006B0005900400D490D0590401A0290402872DA09
:1006C00018030121000B09050843019004980092CA
:1006D000002805D0019952420020884100920190E3
:1006E000029840210A1A0199009800F07DFA054607
:1006F0000C466B4607CB00F098FAC0197141039A7B
:100700000E0D0023D71756401A467A40164344D0A0
:10071000049A002A2DD0029A012A039A15DC1205A8
:10072000C01A914101263605001C7141D20F059E69
:10073000D2070093019202962A46234600F075FBE9
:1007400007B0F0BD38463146FAE71605224A0F4693
:10075000B218C01AB74101210905001C4F41001809
:100760007F41114618187941E20F10436D19644119
:1007700013E0E2076D0815436408C2071443039AA7
:1007800001261205C01A91413605001C7141CE07A1
:10079000400830434908C01851412A46234600F01A
:1007A00037FBCDE7FFE7049801224000C117121A7A
:1007B00000238B4104983146C417381AA141EEE753
:1007C00030B40124E407634030BC55E730B4012461
:1007D000E407614030BC4FE70000E0FFF0B51FB414
:1007E00088B00B990998002448400999C00F490026
:1007F00049080991C0070B990090490049080B91DD
:1008000009990898A64608431CD00B990A980843F2
:1008100018D0099801244000420D4800410D099864
:1008200024050003000B204309900B980003000BE4
:1008300020430B9050181C49401800220190144688
:10084000104605E0002001460DB0F0BD032801DA96
:10085000034600E003239C46C11A0AAE0AE05F008B
:1008600008ADED5B4F00F75B7D430027AA187C4184
:10087000491C5B1E6145F2DD410004AB5A52210464
:10088000120C0A43240C401C0828DFDB019802905C
:100890000099704601910090059B049A079906986B
:1008A00000F0C3FAD0E700000DFCFFFFF0B50C46E6
:1008B0005C4085B0E40FE40703944C000026640814
:1008C00059009446490802460296224321D06246C6
:1008D0000A431ED06200570D4A000E032303550D34
:1008E000012402462C492405781B1B0B360B4018AB
:1008F00023432643614600901C46501AB44103D35B
:100900000098401C009002E0921800985B4100287B
:1009100003DA0020014605B0F0BD002001210905E1
:100920000746864611E064461D46141BB54106D3B2
:100930006546521BB341744607430C43A646CD0798
:1009400040084908284392185B4105460D43EAD107
:100950001046184313D06046194650407140084372
:1009600006D06046101AB34106D20122002306E0E9
:1009700000220123DB0702E00122D243531000983A
:1009800074460105381C6141029C039D00196941B0
:1009900000F03EFABFE70000FD03000070B54B0019
:1009A0005B0803430BD04B005C0D002633466542C9
:1009B000B341D417AD1AA34102DB0020014670BD3C
:1009C00012053018514170BDC217C10F504010B50B
:1009D0004018CA079623002100F0C2F910BD10B5D7
:1009E00000229623114600F0BBF910BD0EB5C217C8
:1009F000C10F5040CA0740180021054B02930192D5
:100A000000910A460B4600F010FA03B000BD00004A
:100A1000330400000EB505490291002100910A46F9
:100A20000B46019100F001FA03B000BD3304000051
:100A3000C20F410040020123400ADB05D207090E24
:100A4000C0187F2901DA00207047962903DC96231D
:100A5000591AC84001E096398840002AF4D0404233
:100A60007047410040020122400AD205090E801859
:100A70007F2901DA00207047962903DC9622511A5B
:100A8000C8407047963988407047000070B5CD0F58
:100A90004A0009030123090B1B0519430B4BED0702
:100AA0000024520D9A4201DA002070BD074B343306
:100AB0009A4203DC9A1A00F0A7F802E004495118A0
:100AC00088402C43F1D0404270BD0000FF0300007D
:100AD000CDFBFFFF4A0009030123090B1B05194346
:100AE000094B10B5520D9A4201DA002010BD064B99
:100AF00034339A4203DC9A1A00F086F810BD034999
:100B00005118884010BD0000FF030000CDFBFFFF1F
:100B1000C20FD207400040080BD0C10D0723DB01F4
:100B2000C91840020905400A1143C2084007114391
:100B3000704700200146704710B5002904DB0124EE
:100B4000E40740428C412146002B04DB1C46012374
:100B5000DB075242A3418B4200D1824210BD00000C
:100B600010B5002904DB0124E40740428C412146F2
:100B7000002B04DB1C460123DB075242A3419942B0
:100B800000D1904210BD0000CB0FDB07490010B52B
:100B9000490802460A4307D00A0D07240903E40165
:100BA000090B121B002A01DC002010BDC900440FF4
:100BB0000C43C100E018D205801800F0C9F810BD40
:100BC0000122D207002800DB101A002900DB511A8D
:100BD000814270470122D207002800DB101A002949
:100BE00000DB511A8842704710B5202A04DB014609
:100BF000203A9140002010BD914020239C1A0346CA
:100C0000E3401943904010BD10B5202A04DB08468C
:100C1000203AD040002110BD0B46D340D0402024C4
:100C2000A21A91400843194610BD10B5202A06DBD0
:100C3000CB170846203A1041C1170B4306E00B467C
:100C40001341D0402024A21A91400843194610BDF8
:100C50003A2800D23038202302469A43412A01D351
:100C600010463738884201D30020C0437047000047
:100C700002681378511801601846704710B5D160AA
:100C8000044951610449116200211161114600F0CB
:100C9000EDF910BD710C0008591000084268002AD7
:100CA00008D001680B78491C002B03D0521E06C0E7
:100CB000184670470121C160881E70474268002AAB
:100CC0000BD0C3680168002B07D183688B4204D026
:100CD000491E521C06C0002070470020C0437047C8
:100CE000F7B5009C0F4600262578641C002D05D022
:100CF00000F0AEF90068405DC007F5D12B2D02D0A1
:100D00002D2D18D0641E39462046029A00F04AFB69
:100D1000002F04D03968A14201D1009939607105D2
:100D2000022400290BDA4042002803DD0EF05CFCAF
:100D30000460A007FEBD012080020643E3E700280F
:100D4000F8DA0EF051FC04600048FEBDFFFFFF7FA3
:100D5000002904DA401C490001D1400840007047D6
:100D600070B40024050C05D11024000402D1002920
:100D700021D01124050E01D100020834050F01D144
:100D80000001241D850F01D18000A41C002801DB77
:100D90004000641C002908D020252E1B0D46F5407C
:100DA000A14000D001212943084301061B1B000A72
:100DB000DB1D02D5002070BC7047DB0518188018B9
:100DC0000029F8DA401C4900F5D170BC4008400009
:100DD000704710B541000DD04100090E962909DC7D
:100DE0007E290ADC07DB410205D0C00F7F21C00746
:100DF000C905401810BD002010BD9622541A2021AC
:100E00000A1B01469140E040FFF7A2FFA04010BD41
:100E100010B5002B08DA0024401C614192185B4198
:100E20001A4301D14008400010BDF0B51FB482B094
:100E300005460C0003D008460EF062FB02E00EF0FF
:100E40005FFB20300246009021462846FFF7CCFE8B
:100E5000049B059A04460F4618431143084314D0D7
:100E6000184610431BD0009840210A1A18460599CD
:100E7000FFF7CAFE05460E46009A05990498FFF74B
:100E8000B3FE084305D0012004E02046394607B0F0
:100E9000F0BD0020C11705430E432C433743009992
:100EA0000E986305401A7905E40A00220C43FD0AF6
:100EB0000A3002D500200146E9E701051019694111
:100EC0000C9C0D9D00196941FFF7A2FFDFE7FEB5FD
:100ED00000231A461B1A8A4103DB0020014603B097
:100EE000F0BD4A000D0301212D0B0905520D0D43E4
:100EF000D10702D100186D41521E5110FF31FF3150
:100F00000131002704463E463846009701910246CB
:100F1000012100200905FFF777FEC3197141F81878
:100F2000324684468E464A4161462846611A9041BF
:100F300004D36046241A954176461F46241900982A
:100F40006D41401C00903428E1DDF91930467041B4
:100F5000091BA84103D20022D243134601E000221C
:100F6000134601980105381C7141FFF751FFB6E7A0
:100F7000F8B50546480040080C46284304D06000F8
:100F8000184A400D904201DD2846F8BD1549353913
:100F9000884210DC88420BDB290D2003084329031B
:100FA000014305D0E00F1049C00741180020F8BDEB
:100FB00000200146F8BD161A4020821B2846214613
:100FC000FFF712FE07460091284621463246FFF7FA
:100FD0001BFE3A46009BFFF71BFF3246FFF704FE5D
:100FE000F8BD0000330400000000F03F4A00090390
:100FF0000123090B1B0519430A4B10B5520D9A42E8
:1010000002DA0020014610BD064B34339A4203DC5D
:101010009A1AFFF7F9FD10BD034BD218FFF7E4FD54
:1010200010BD0000FF030000CDFBFFFF064C0125B3
:10103000064E05E0E36807CC2B430C3C9847103480
:10104000B442F7D3FFF740F8486B0108686B01081A
:10105000004870472459010810B50446FFF7F8FF0F
:101060000068005DC007C00F10BD0000F3B58DB073
:1010700000200A9001200B90002608460C300C46F8
:1010800009906269012109989047051E2ED0252DEF
:101090002DD0216A8847002818D06269012109985B
:1010A0009047216A88470028F7D1411E6269099854
:1010B000904700E0761CA1690D988847216A88470F
:1010C0000028F7D1E1690D988847DAE7A1690D9802
:1010D00088470746A84201D1761CD2E7E1690D98FE
:1010E00088477F1C02D10A98002877D049E1002761
:1010F00062693D463946099890472A280CD16269B1
:10110000012109989047012506E00A214F433F1825
:10111000303FEBD4102005436269012109989047C4
:10112000014630390A2903D29B498F42DEDCECE7C5
:10113000E90600D4994F6C280AD04C2810D06828B2
:1011400024D06A282ED074280CD07A280AD00DE03A
:1011500062690121099890476C2823D004211CE082
:10116000202005436269012109989047A7606560C6
:1011700065284FD026DC582839D01ADC452849D0BC
:1011800012DC252834D04128B0D143E06269012126
:1011900009989047682802D008210D43E6E701200E
:1011A000C002DEE70220DCE7462833D047282CD1F6
:1011B00030E05B2870D061282CD063286CD0642884
:1011C00023D161E06F284FD009DC662822D0672840
:1011D00020D0692826D06E2817D12EE0CDE07028C7
:1011E0004DD073286FD075284ED078280DD154E09B
:1011F000A1690D9888470546252800D16CE7E1696B
:101200000D9888476D1C00D16DE7BAE00A224CE0CA
:101210000A2252E0012023466A46C0430D99C04687
:10122000C046A3E02846402108436060A807234643
:1012300001D5002239E000223FE0E80700D020E796
:101240002068011D21600068290501D5067018E796
:10125000290701D5068014E7A90703D5F117066011
:1012600041600EE706600CE72846402108436060B5
:10127000A807234601D5082217E008221DE04849A7
:1012800028460840606016E0284640210843606018
:10129000A8072346BCD5B9E715E0284640210843F6
:1012A0006060A80707D5234610220120C0430D998E
:1012B000C046C0465AE0234610220120C0430D9983
:1012C000FFF748F852E000210C910B46009163288B
:1012D00002D05B2807D043E0E80601D40120A060DB
:1012E000012000903CE062690121099890475E2846
:1012F00005D101200C900146626909989047216947
:10130000002906D10B4601AA8F00491CD351082998
:10131000FADB002835D0216900290ED1C117C90E8A
:1013200009184A11930001AA9A1849094901411A5A
:101330000120136888400343136062690121099802
:1013400090475D28E5D10C98002808D0002001AB1B
:1013500081005A58401CD2435A500828F8DB01AB90
:1013600001202246C0430D99C046C04600280ADA33
:10137000401C06D10B98002803D00020C0430FB0BA
:10138000F0BD0A98FBE7E90702D10A99491C0A91C6
:10139000361800200B9074E6CCCCCC0CFFFFFF7FFE
:1013A000F1F7FFFFF7B582B0029C00272078641C9C
:1013B00015460197302802D0002D15D015E0207871
:1013C0000127641C782804D0582802D0002D09D0A9
:1013D0000BE0002D01D0102D07D10027102520781B
:1013E000641C02E0082500E00A250026009610E0B3
:1013F0000099012769430818020C294680B27143FD
:1014000000908E183804864201D301200190207884
:10141000641C2946FFF71CFC0028E9DA0398002821
:1014200005D0002F01D0641E00E0029C04600198EA
:10143000002806D00EF0D8F802210160C81E05B0C1
:10144000F0BD009930040843F9E770B58C180578B1
:10145000401C6B075B0F01D10378401C2A1106D199
:101460000278401C03E006780E70401C491C5B1E8D
:10147000F9D12B0705D40023521E0DD40B70491C43
:10148000FAE70378401CCB1A921C03E01D780D701C
:10149000491C5B1C521EF9D5A142D8D3002070BD57
:1014A00038B50446064805490068FEF721FE60434A
:1014B00000E0401E00900028FBD138BD40420F00E4
:1014C00084010020F8B50446006881688907890F07
:1014D000012902D10168C90722D18168114A102669
:1014E0001140012500290ED1816829438160012026
:1014F000FFF7D6FF03F0BCFA07460CE003F0B8FA9A
:10150000C01B0A2807D9A06D3043A065E06D2843B1
:10151000E0650120F8BD20680068C043C007EDD138
:101520000020F8BD17000080F0B589B00C460746D2
:1015300010220021684611F08BFE694622460846BB
:101540000EF011FE684600788726010668460029DD
:101550000FDA00214318425C5B785200DB091A4322
:101560004254491C0F29F5DBC17B024649007140FA
:101570000DE000214318425C5B785200DB091A43FE
:101580004254491C0F29F5DBC17B02464900D17347
:10159000E21DF9325169102912D0017809061BD5D4
:1015A00000214518435C6D785B00ED092B434354E3
:1015B000491C0F29F5DBC17B03464900714019E046
:1015C00000216218FF3201325378455C491C6B40A0
:1015D00053701029F5DB26E000214518435C6D7837
:1015E0005B00ED092B434354491C0F29F5DBC17BFC
:1015F00003464900D973E11D55698023FA316B54C4
:10160000002500E05D5453695B1C5361102BF9D336
:1016100000216218FF3201325378455C491C6B404F
:1016200053701029F5DB002162181046FF32E030BC
:101630000132437C5278491C534043741029F3DB38
:1016400021461022F13104A811F0EAFD2246394664
:1016500004A80EF088FD10220021684611F0F8FD64
:1016600009B0F0BD10B5044610220021F13011F090
:10167000EFFDFF20002115300151F022204611F02E
:10168000E7FD10BD0B4610B50246102118460EF0BE
:1016900095FD10BDF0B50446FF308BB00F4601300C
:1016A0000890E11D4069FA31009110391546079103
:1016B000002843D010210E1AAE4200D316460099DE
:1016C000B2B24018394611F0ABFD0898089940694C
:1016D0008019486110283AD3B54238D000216218E9
:1016E0001046FF32E0300132437C5278491C5340AF
:1016F00043741029F3DB0799224608460EF033FDA8
:10170000BF19AD1B1AE000202118E0314A7C3B5C78
:10171000401C5A404A741028F6DB102202A8079990
:1017200011F07EFD02A9224608460EF01CFD102293
:1017300002A9079811F074FD103D1037102DE2D862
:10174000AAB23946009811F06BFD089845610BB0BC
:10175000F0BD0000FFB5FF49A1B0CA7DC81DF9303A
:101760002D9E2E9D012A12D10022CA75C3662A9988
:1017700001672B9941672199016622994166239956
:1017800081662C99C6678167014680310D60F24CF5
:101790001846E16EFEF790FE0021C943FEF760FF98
:1017A0000746216F2A98FEF787FE0021C943FEF7FE
:1017B00057FF2A90616F2B98FEF77EFE0021C943E8
:1017C000FEF74EFF2B90216E00912198FEF774FEDC
:1017D0000021C943FEF744FF0099FEF76DFE00218A
:1017E000C943FEF73DFF0099FEF766FE0021C9439D
:1017F000FEF736FF2190A16F00912C98FEF75CFE5A
:101800000021C943FEF72CFF0099FEF755FE002189
:10181000C943FEF725FF0099FEF74EFE0021C9439C
:10182000FEF71EFF2C90E7662A9820672B986067CA
:1018300021982066229860662398A0662C98E66717
:10184000A06720468030803C0560616C03910846AB
:10185000FEF78BFE1D90A16C02910398FEF785FEAA
:101860000E90E16C01910398FEF77FFE0D90216DC3
:1018700003980C46FEF779FE0C9002990846FEF795
:1018800074FE0B9001990298FEF76FFE0A902146B4
:101890000298FEF76AFE019909900846FEF765FE78
:1018A000089021460198FEF760FE21460790084601
:1018B000FEF75BFE2B9906900846FEF756FE2A9926
:1018C00000900846FEF751FE044639460846FEF7EA
:1018D0004CFE2146FEF7F0FD0099FEF7EDFD10F0FD
:1018E000A3FF044601463846FEF73FFE24902146FA
:1018F0002A98FEF73AFE2A9021462B98FEF735FEED
:1019000029462B900846FEF730FE0746314608462A
:10191000FEF72BFE2C9904460846FEF726FE2146CC
:10192000FEF7CAFD3946FEF7C7FD10F07DFF0446FD
:1019300001462C98FEF719FE2C9021463046FEF702
:1019400014FE2D9021462846FEF70FFE2E900D998D
:101950000998FEF7B1FD04461F9001212E98FEF76D
:101960007FFE1C9021461B90FEF7FFFDFFF7D0F88D
:101970000E461A900C990A98FEF7EFFD04461E9049
:1019800001212D98FEF76CFE189021461790FEF766
:10199000ECFDFFF7BDF8159116900698FFF7B8F823
:1019A00005460C4605910898FFF7B2F800226B4BEC
:1019B00003910290FEF70AFF23462A46FEF700FF36
:1019C00004460F460191009001212C98FEF748FE35
:1019D00012901190FFF79CF822463B46FEF7FEFE60
:1019E000159B169AFEF748FE33461A9AFEF744FEF8
:1019F000FFF7CAF813900E990798FEF7AEFD01465F
:101A00001B98FEF7B2FDFFF783F80E4605990446D2
:101A10002F460D460B98FFF77BF800224F4BFEF741
:101A2000D5FE3A462B4605910490FEF7C9FE0546C1
:101A30000F461798FFF76CF82A463B46FEF7CEFE96
:101A400005460F460C990A98FEF736FD0146119897
:101A5000FEF78BFDFFF75CF82A463B46FEF70CFECF
:101A600033462246FEF708FEFFF78EF80646039B34
:101A7000029A05990498FEF7A3FE05460C460291CA
:101A80001C98FFF745F823462A46FEF7A7FE0446B2
:101A900004910E990798FEF70FFD01460E901898D5
:101AA000FEF763FD07460D990998FEF756FD0146BE
:101AB0000D901298FEF759FD3946FEF7FDFCFFF731
:101AC00027F82246049BFEF7D7FDFFF75DF8044692
:101AD00031460846FEF749FD139906460846FEF7CB
:101AE00044FD3146FEF7E8FCFFF712F812F014FB54
:101AF000FFF74AF80C9001210D98FEF7B1FD09900F
:101B000001210E98FEF7ACFD07900B991D98FEF78A
:101B100024FD0899FEF721FD0699FEF7CDFC0A90F9
:101B2000012120460D9EFEF79BFD31460B90FEF7EE
:101B30001CFDFEF7EDFF059107460121019E009C6B
:101B40000C98FEF78DFD0C90FEF7E2FF224633461F
:101B500006E0000098010020980200200000E03F0D
:101B6000FEF73CFE3A46059BFEF786FDFFF70CF8B4
:101B700007460E990B98FEF7F8FC04461E990C9840
:101B8000FEF7F3FC2146FEF797FC029906462C4629
:101B90000D460B98FEF7BCFF22462B46FEF71EFEB5
:101BA00004460D461F990C98FEF7DFFCFEF7B0FFC8
:101BB00022462B46FEF760FDFEF7E6FF054631465E
:101BC0002E98FEF7D2FC044629462D98FEF7CDFC50
:101BD0002146FEF7C2FC044607992B98FEF7C5FC88
:101BE00000900A992A98FEF7C0FC0099FEF7B5FC10
:101BF0002146FEF761FC049029462C98FEF7B5FCBF
:101C0000044639462E98FEF7B0FC2146FEF7A5FCA7
:101C100004460A992498FEF7A8FC054609992B98D2
:101C2000FEF7A3FC2946FEF798FC2146FEF744FC8C
:101C3000089039462D98FEF798FC044631462C98BA
:101C4000FEF793FC2146FEF788FC044609992A9882
:101C5000FEF78BFC054607992498FEF786FC29467B
:101C6000FEF77BFC2146FEF727FC0590FD49049812
:101C7000FEF77BFCFC4F3946FEF777FCFB4C616DB1
:101C8000FEF71AFC05466065F6490898FEF76DFCFC
:101C90003946FEF76AFCA16DFEF70EFC0646A0650C
:101CA000F0490598FEF761FC3946FEF75EFCE16DF0
:101CB000FEF702FC0746E065ED490498FEF755FC87
:101CC0002199FEF7F9FB2946FEF7F6FB0546E849A0
:101CD0000898FEF74AFC2299FEF7EEFB3146FEF724
:101CE000EBFB2290E2490598FEF73FFC2399FEF7B3
:101CF000E3FB3946FEF7E0FB2390216D0391099148
:101D0000FEF733FCE16C0746029105912298FEF73D
:101D10002CFC06460120A16CC00768400191089187
:101D2000FEF723FC3146FEF718FC3946FEF715FC9A
:101D30000021C943FEF794FCA06607460790099965
:101D40002298FEF712FC0B9005992398FEF70DFCE4
:101D5000616C0646009128460691FEF706FC314666
:101D6000FEF7AAFB0B99FEF7F8FB0021C943FEF72B
:101D700077FCE06604900D9028460999FEF7F5FB84
:101D80000B9008992398FEF7F0FB064606992298D7
:101D9000FEF7EBFB3146FEF7E0FB0B99FEF78CFB01
:101DA0000021C943FEF75CFC20670A900E9028468C
:101DB0000599FEF7DAFB0B9008992298FEF7D5FB00
:101DC000064606992398FEF7D0FB3146FEF774FBD2
:101DD0000B99FEF7C2FB0021C943FEF741FC606787
:101DE000A4490B90FEF7C1FB0999FEF765FB064677
:101DF0001790A0482399FEF7B0FB31461090FEF7EC
:101E0000B4FB09909B490E98FEF7AFFB0599FEF7CE
:101E100053FB1890064697482299FEF79EFB3146E1
:101E20001590FEF7A2FB059092490D98FEF79DFBD9
:101E30000899FEF741FB06461A908E492846FEF7A0
:101E400090FB31461190FEF790FB064689493846D3
:101E5000FEF78BFB0699FEF72FFB86491B90FEF7DA
:101E600084FB3146FEF728FB0599FEF725FB09990F
:101E7000FEF722FB0021C943FEF7F2FBA067199091
:101E800017991598FEF771FB06467A49189C239816
:101E9000FEF712FB0C9021461490FEF766FB0690AD
:101EA00074491A98FEF761FB0746724928461B9C45
:101EB000FEF702FB0D9021460890FEF756FB3946CF
:101EC000FEF7FAFA0699FEF7F7FA3146FEF7F4FA4A
:101ED0000021C943FEF7C4FB6449C8670F90069010
:101EE00017990898FEF741FB139062491898FEF77E
:101EF0003CFB07461A991098FEF737FB06465D49EA
:101F00001B9C2298FEF7D8FA059021461290FEF706
:101F10002CFB3146FEF7D0FA3946FEF7CDFA13997D
:101F2000FEF7CAFA0021C943FEF79AFB4F4C51490C
:101F3000803420600E9008901798FEF716FB074635
:101F400018991198FEF711FB06461A991298FEF798
:101F50000CFB12901B991498FEF707FB1299FEF7E1
:101F6000ABFA3146FEF7A8FA3946FEF7A5FA00218A
:101F7000C943FEF775FB60603E490990FEF7F5FA2C
:101F80000399FEF799FA014613901098FEF7EDFABF
:101F9000074638490898FEF7E8FA0299FEF78CFAE6
:101FA000014614901598FEF7E0FA06463149069866
:101FB000FEF7DBFA0199FEF77FFA014617901198B8
:101FC000FEF7D3FA18902B491998FEF7CEFA00992C
:101FD000FEF772FA27491690FEF7C7FA1899FEF72E
:101FE0006BFA3146FEF768FA3946FEF765FA0021CA
:101FF000C943FEF735FBA060189013991598FEF7BA
:10200000B4FA074614990C98FEF7AFFA06901949EE
:102010001798FEF7AAFA064616990D98FEF7A5FA44
:102020003146FEF749FA0699FEF746FA3946FEF7B9
:1020300043FA0021C943FEF713FBE06008900690C5
:1020400013990D98FEF791FA0D900A491498FEF72E
:102050008CFA074617991098FEF787FA06461699E4
:10206000059809E00AD7A33C52491D3C18020020FC
:102070000000204252499D3BFEF777FA3146FEF7B9
:102080001BFA3946FEF718FA0D99FEF715FA0021EA
:10209000C943FEF7E5FA20610D901290FE491398AE
:1020A000FEF763FA109014991198FEF75EFA07464E
:1020B00017990598FEF759FA064616990C98FEF7F7
:1020C00054FA3146FEF7F8F93946FEF7F5F910995A
:1020D000FEF7F2F90021C943FEF7C2FA6061EF4949
:1020E0001090FEF742FA0399FEF7E6F906461790BC
:1020F000EA482399FEF731FA31461C90FEF735FA8B
:102100000746E6491298FEF730FA0299FEF7D4F92D
:1021100006461690E1482299FEF71FFA31461290C2
:10212000FEF723FA0590DD490698FEF71EFA01999D
:10213000FEF7C2F906461590D8492846FEF711FA6F
:1021400031461B90FEF711FA0646D4491898FEF75F
:102150000CFA0099FEF7B0F9D0491490FEF705FA91
:102160003146FEF7A9F90599FEF7A6F93946FEF7BB
:10217000A3F90021C943FEF773FAA06105901799EE
:102180001298FEF7F2F90690C449169E2398FEF7BE
:1021900093F931461A90FEF7E8F90C90BF4915986B
:1021A000FEF7E3F90746BD492846149EFEF784F979
:1021B00005463146FEF7D9F93946FEF77DF90C9907
:1021C000FEF77AF90699FEF777F90021C943FEF781
:1021D00047FAE061139028461799FEF7C6F9129066
:1021E000AE491698FEF7C1F9064615991C98FEF7F8
:1021F000BCF90746A949149D2298FEF75DF92946C6
:102200001D90FEF7B2F93946FEF756F93146FEF752
:1022100053F91299FEF750F90021C943FEF720FA4D
:10222000206206909D491798FEF79FF9054616997A
:102230001B98FEF79AF9064615991D98FEF795F931
:10224000074614991A98FEF790F93946FEF734F9C3
:102250003146FEF731F92946FEF72EF90021C94330
:10226000FEF7FEF960620C9001211898FEF7F8F96C
:10227000044601211998FEF7F3F90799FEF71CF9B6
:102280002146FEF719F90599FEF716F9FEF740FC0D
:102290000022834BFEF7A2FA04460E460098FEF792
:1022A00037FC22463346FEF7E7F9FEF76DFC7D4921
:1022B0000746486401210898FEF7D2F90646012135
:1022C000784C0F98FEF7CCF90499FEF7F5F83146F3
:1022D000FEF7F2F81399FEF7EFF8FEF719FC00226B
:1022E0006F4BFEF77BFA05460E460198FEF710FC91
:1022F0002A463346FEF7C0F9FEF746FC0646A064C0
:1023000001210D98FEF7ACF9054601210E98FEF764
:10231000A7F90A99FEF7D0F82946FEF7CDF80699F5
:10232000FEF7CAF8FEF7F4FB00225D4BFEF756FA03
:1023300000900D460298FEF7EBFB2B46009AFEF745
:102340009BF9FEF721FC0546E06401211098FEF799
:1023500087F9009001210998FEF782F90B99FEF7A1
:10236000ABF80099FEF7A8F80C99FEF7A5F8FEF770
:10237000CFFB00224A4BFEF731FA009001910398FF
:10238000FEF7C6FB019B009AFEF776F9FEF7FCFB11
:1023900001462065FEF7E9F8294601900846FEF758
:1023A000E4F8054631460846FEF7DFF806463946AA
:1023B0000846FEF7DAF83146FEF77EF82946FEF7C2
:1023C0007BF80199FEF778F810F02EFA07460146DF
:1023D000606CFEF7CAF8064660643946A06CFEF7EA
:1023E000C4F8A06403903946E06CFEF7BEF80546D9
:1023F000E0643946206DFEF7B8F8074620650121F4
:102400003046FEF72DF92946FEF7AFF803260546BC
:10241000B60731460398FEF7A8F83946FEF7A5F847
:102420002946FEF749F8FEF773FB0DF045FF1E4AFB
:102430001E4BFEF7D3F9FEF7A7FB30990860E06C5E
:1024400001210546FEF70CF929460490FEF78DF8A8
:102450000546A06C31460746FEF787F83946FEF779
:1024600084F82946FEF779F87F21C905FEF724F89C
:10247000FEF74EFB05460E460121606CFEF7F0F8B4
:102480003946FEF772F807460498216DFEF76DF89D
:102490003946FEF711F80BE052499D3B52491D3C6D
:1024A000E3365A3F180200206666666666A64CC090
:1024B000FEF72EFB2A4633460FF086FB264E254AB2
:1024C0003346FEF78BF9FEF75FFB2F990860216D0D
:1024D00000910846FEF749F80590E16C0491084622
:1024E000FEF743F8A16C074608460191FEF73DF858
:1024F000616C054608460291FEF737F82946FDF75C
:10250000DBFF3946FEF729F80599FEF726F8FEF7B6
:10251000FFFA04460D4600990298FEF726F8074692
:1025200004990198FEF721F83946FDF7C5FF01210E
:10253000FEF796F8FEF7ECFA22462B460FF044FB26
:10254000044A3346FEF74AF9FEF71EFB319908604C
:1025500025B0F0BD6666666666A64C40F7B52349B1
:102560008022097C214B511ACDB2D97B1B7C80265D
:10257000F31A0A46DEB2871E491C0124C9B2761E30
:102580003B000CF0ECFF09060C060C120C06062BA7
:102590003000164BAA4224D2154CA05403E0134B32
:1025A000B24215DB1DE0D9730DE0104EAD1EAA42FC
:1025B00017DA0F4B985401985854491CC8B2029925
:1025C0001954401CF073002408480121817308E06D
:1025D000074CA05401986054491CE4E7034BAA42FD
:1025E000F6D32046FEBD0220FEBD000044040020BC
:1025F000AE1B002010B586B014216846FDF728FEFA
:102600000D48C26A01210A43C262C06A052408401B
:1026100005900420009000200290032001912407DF
:1026200003906946204602F051F901220421204618
:1026300002F017FA06B010BD0010024000B50B48BA
:1026400087B0C26A01210A43C262C06A0191084090
:1026500005901920000200900320039002910520AC
:102660006946000702F032F907B000BD00100240D1
:1026700000B587B0FFF7BEFF00F0CCFE0A48C26A83
:1026800001210A43C262C06A0191084005901920E5
:102690000002009003200390029105206946000784
:1026A00002F014F907B000BD0010024070B5052615
:1026B0000546360700220421304602F0D2F90120F7
:1026C00004F046F9104C208001220421304602F02B
:1026D000C8F904F0FDF920880C49098848430C49E1
:1026E000FDF71CFD60806088392148432F21FDF7EC
:1026F000FFFCA0806088392148432F21FDF7F8FCBA
:10270000FEF76DF9E86070BD8C01002048030020E1
:10271000FF0F000001780448024A4368D1540121A8
:1027200001707047871700209C03002010B50348F4
:1027300012F06EFA02490020087010BD152700083B
:102740009C03002010B51248017801290ED1002108
:102750000170104B42689C5C012C08D00D2C09D0F4
:102760000A2C07D07F2A0DD0521C426010BD416058
:10277000082009E0002AF9D099544160054810F07A
:102780005DFF10BD416006200FF0F0FD10BD0000A0
:102790009C03002087170020F8B506460F46006806
:1027A000FEF7B6F9044600200D46385EFEF71EF926
:1027B0000022054BFEF712F822462B46FDF75CFF80
:1027C000FEF7E2F93060F8BD008076403EB50D4C72
:1027D0006946A27A0A70227F8A70C870E06B0CF09A
:1027E00017FA0190606C0290E07F69464870207E85
:1027F00008F058FD218D606C4143081AA16E401805
:10280000A0663EBD44040020FFB5044689B0002008
:1028100003900890069021891646002915D0019052
:10282000626904922069002A04D000290FD00A4668
:1028300092B20392002900D00E46E168884215D377
:10284000039A61688018081A11E00220E7E72268FD
:102850006568135C471CAF4202D3451B6D1C00E04A
:102860003D46525D1202921C9A18E1E70020019940
:10287000751807950C994D43854201D2002102E05D
:102880000799FDF735FCC8B20199884208D9217F24
:10289000CA0700D106980690880701D5019800E084
:1028A0000698002E6AD00499491908186168884270
:1028B00064D8002798E0039808186168884200D31C
:1028C000401A20612189002911D121680E546168C4
:1028D000401C814200D8401A2268310A11546168B4
:1028E000401C814200D8401A6169891C616161689D
:1028F0000D1AB54200D33546B5420DD0B54202D2CD
:10290000217F002908D0002D6AD0217FCA0730D04E
:102910002189002913D019E039460A9A7143891890
:10292000226810182A46FDF77AFC60694019606138
:1029300007990895002089B2751B039140E0236830
:10294000FF22811E5A542168401E0A5460694019B2
:102950006061002008902189354600292AD120682D
:1029600005702168280A487061690220891C61612C
:1029700020E089071ED52189002902D000200DB052
:10298000F0BD2168821E8D542268290A431ED1544D
:1029900039460A9A71438918226810182A46FDF7A9
:1029A0003EFC6069401960610895A069751B401C78
:1029B000A061D4E70199691889B2039100212161CE
:1029C000002D0DD0089A0A993B4689182268734356
:1029D000101859182A46FDF722FC606940196061F9
:1029E000A069401C7F1CA0610C982169874200D21D
:1029F00061E7019808186168884200D3401A21688D
:102A00004018BCE710B5029C01600021C160016163
:102A100041614260816103810477A00703D5002BE7
:102A200001D0481E10BD002010BD0000F0B5038984
:102A30000022002B09D0002300240C804469002CC4
:102A400058D00289002A02D00DE00223F4E7C268C0
:102A500004684668A55C571CB74200D3921B521C01
:102A6000A25C1202AA1894B20C80027FD50729D06A
:102A7000920727D4204A944202D10289002A0AD020
:102A8000C468026994421DD90289002A1AD0456897
:102A90002C1B944216D24468C2684569A21AAA1A2D
:102AA00042610022C2600289002A0AD10268012C18
:102AB000157802D86442641C00E00124125D120201
:102AC000AA180A80C5684468EA18A24200D3121BFB
:102AD00006680F8892194669FF18F61B466106D0F2
:102AE00009886918C918A14200D3091BC16081690E
:102AF000491E81611046F0BDFFFF0000F0B503895B
:102B00000022002B0AD0002700230B804369002BF2
:102B100042D00389C268002B02D00DE00227F3E700
:102B200005684468531CAE5CA342134600D31B1BCC
:102B30005B1CEB5C1B02F3189CB20C80037FDD076F
:102B400023D09B0721D4154B9C4202D10389002B33
:102B50000AD0C46803699C4217D90389002B14D09A
:102B600045682C1B9C4210D200221B041B0C0BD16D
:102B700043680468012B02D85B425B1C00E0012320
:102B8000E35C24781B021B190B80D1194268914227
:102B900000D3891A00680A181046F0BDFFFF000034
:102BA000FFB5002085B00090054606460190002440
:102BB000770007980121C05BA14008422FD0281957
:102BC0000C2203905043089A1258002A27D0059AE5
:102BD000002A01D1890722D00899411808200291C2
:102BE0000856021100070117069840B208F081FD4F
:102BF000002814D00298407A01010E980818C06885
:102C0000002804D00198401CC0B2019007E0009A4F
:102C10000F99039888540098401CC0B20090641C1F
:102C2000E4B2082CC5D31035761CEDB2F6B2082DEF
:102C3000BDD3109901980870009809B0F0BD00004C
:102C400030B50A4C03680A4DA34205D90B68AB4264
:102C500002DD13885B1C13800068A84205DD08684C
:102C6000A04202D91088401E108030BD00002AC347
:102C700000002A4330B587B014216846FDF7E8FA12
:102C8000032001900020029003204003104C00908C
:102C9000E06A01210843E062E06A084005900520EF
:102CA0006946000701F012FEE06A40084000E06259
:102CB000606B0125AD052843606301F0DBFA01F08C
:102CC000E9FA01F0DFFA606BA843606307B030BD3A
:102CD0000010024010B511F03DFF10BD10B50468A2
:102CE00063608368102B036803D099600068C2603A
:102CF00010BD9A600068C16010BD10B503F090FF70
:102D000010BD000010B5074801224179008A09046E
:102D100001430448143001600146034800F006F8FE
:102D200010BD0000A403002054000808F7B51746A2
:102D300000260546EFF3108472B601F023FD0DE086
:102D40000198B10042582946022001F0F1FC002808
:102D50000BD084F3108806A00CF05AF8BE42EFDBCB
:102D600001F0DCFC84F31088FEBD2D1D761CF5E718
:102D70006572726F7220696E20454550524F4D202A
:102D80005772697465206572726F720D00000000E1
:102D900010B5012001F08EFD022001F08BFD10BD69
:102DA00010B5042001F086FD082001F083FD10BD60
:102DB000F8B5102001F07EFD202001F07BFD4020C1
:102DC00001F078FD802001F075FDFF20013001F059
:102DD00071FD0120400201F06DFD0120800201F033
:102DE00069FD0120C00201F065FD1C4C60691C4EAC
:102DF000C0041C4F0125002818DA3078002810D0B4
:102E00001948006800280CD018480078C00708D17D
:102E100017480078012804D116480068002800D11E
:102E20007D7001200003606103F022FE0120400359
:102E300001F040FD606940040AD53078002800D0D8
:102E40003D700D48056001208003606103F010FEB5
:102E50000120C00301F02EFDF8BD00000004014078
:102E6000A60100204C0300207403002084040020ED
:102E7000A2010020CC0100205402002070B51248AD
:102E800086B0C16A02242143C162C06A104E20404C
:102E9000059060030D4D00900195029469463046FF
:102EA00001F014FDE002009069460195029430465D
:102EB00001F00CFD00220321072001F053FE072042
:102EC00001F046FE06B070BD001002400000111077
:102ED00000040050FEE7000010B5084900224A61D6
:102EE00007494B684C1523434B604B680824234328
:102EF0004B60C009C001026010BD00006C120020D0
:102F00000020024010B5214A00219069C3052048E5
:102F100004D54169022319434161911593699B05C9
:102F200005D543690124234343616302194393692F
:102F30005B0505D54369082423434361E301194335
:102F400093691B0505D54369042423434361630248
:102F5000194393699B0405D54369102423434361B6
:102F60006302194393699B0304D5446920231C43DE
:102F7000446119439369DB0305D543694024234326
:102F80004361A0020143916110BD00000020024096
:102F90006C12002070B5054601F06AFD0646184C1B
:102FA0000AE0681C08D0002D04D001F061FD801BF0
:102FB000A84201D9032070BDA069C007F1D1A06962
:102FC000800701D50220A061A069C00511D4A069C5
:102FD00080050ED4A06940050BD4A069000508D473
:102FE000A069800405D4A069800302D4A069C0034D
:102FF00003D5FFF787FF012070BD002070BD0000E2
:103000000020024010B5044601F032FC08490020BF
:1030100011C1012008600749054801F0C5FB0028DF
:1030200003D005A00BF0F4FEFBE701F0F9FB10BDA7
:10303000FC040020000000206572726F7220696E2F
:10304000204572617365206F7065726174696F6E7F
:103050000A0D0000F8B516460F460446002501F09B
:1030600007FC0DE0A8003A582146022001F0E2FBDF
:10307000002803D005A00BF0CBFEFBE7241D6D1C40
:10308000B542EFDB01F0CCFBF8BD00006572726F5A
:103090007220696E205772697465206F7065726165
:1030A00074696F6E0A0D000070B50D46044601F09C
:1030B000DFFB21462A46022001F0BCFB002803D09A
:1030C00003A00BF0A5FEFBE701F0AAFB70BD00001A
:1030D0006572726F7220696E205772697465206F15
:1030E0007065726174696F6E0A0D000001680248B4
:1030F000416040687047000000000020FFB581B0CB
:103100001D4614460E460198FDF792FC3060FDF70F
:103110005BFC0199FDF725FA164F3946FDF725FAB4
:10312000FDF786FC2060FDF74FFC00903068FDF74E
:103130004BFC0199FDF715FA3946FDF716FA00998F
:10314000FDF70BFA3946FDF710FA2860FDF7E0FCB1
:103150000022094BFDF73AFB084A094BFDF7ECFC4E
:1031600006D2002028606168241D3C2900D120601F
:1031700005B0F0BD0000704200004E407B14AE4729
:10318000E17A843FF8B50020084D04460746260240
:10319000A95D012904D17019401C00F0CFF9AF5589
:1031A000641CE4B2062CF2D3F8BD0000080A00202B
:1031B00070B586B0FFF7E6FF5848594C00682646C0
:1031C000403601286FD104AB03AA02A9206AFFF799
:1031D00095FF254620350498FDF79AFC0191009053
:1031E00028794E2860D04FA150A0039B029A0BF083
:1031F0000FFE0028EFD1206AFDF78AFC0B462979E3
:103200004E2953D047A102464DA00BF001FE0028E5
:10321000F1D104AB03AA02A9A06AFFF76FFF0498DB
:10322000FDF776FC01910090287B452840D047A10E
:1032300048A0039B029A0BF0EBFD0028EFD1A06A97
:10324000FDF766FC0246287B0B46452832D03FA19D
:1032500045A00BF0DDFD0028F1D1E06BFDF758FC37
:103260003278009202460B4642A00BF0D1FD0028B6
:10327000F3D1206BFDF74CFC02460B4642A00BF04D
:10328000C7FD0028F5D1606BFDF742FC02460B46F6
:1032900042A00BF0BDFD0028F5D1211D0EC910295B
:1032A0000ADA083109E02FE040A19DE73FA1AAE733
:1032B00040A1BDE73FA1CBE7103940A00BF0A8FD2E
:1032C0000028EAD142A06369A269E1690BF0A0FD80
:1032D0000028F7D1124D6035EA78A97841A00BF0AB
:1032E00097FD0028F8D1F17843A00BF091FD00285C
:1032F000F9D1444D2869FDF70BFC02460B4642A06C
:103300000BF086FD0028F5D1F078022801D00328C3
:1033100001D10020A06306B070BD0000840300202E
:1033200030070020536F75746800000025733A253C
:103330003364202532642725352E326620000000B4
:1033400025733A20252E36660A0D000057657374E2
:103350000000000025733A253364202532642725B8
:1033600030352E326600000025733A20252E366651
:103370000A0D2000416C7469747564653A252E311C
:10338000662563200000000053706565643A252EB1
:103390003166206B6D2F682000000000436F75724E
:1033A00073653A252E316620000000004E6F72745E
:1033B00068000000456173740000000054696D6589
:1033C0003A2532643A253032643A2530326420009E
:1033D000446174653A3230253032642D25642D25E0
:1033E00064200000536174656C6C6974653A253221
:1033F000642F2532640000004D6F64653A25326405
:103400000A0D0000F400002050444F503A252E31A0
:10341000660A0D0000B50B4887B0C26A02210A4354
:10342000C262C06A084005902020009001200190EF
:1034300000200290032003906946034801F046FAF9
:1034400007B000BD001002400004005070B50E4CE3
:10345000A079002801D0002070BD0120A07100F0EB
:1034600039F80A4D00220821284601F0FAFA002214
:103470001021284601F0F5FA01222021284601F00A
:10348000F0FAA07970BD0000F400002000040050A4
:1034900070B50E4886B0C26A02210A43C262C06A91
:1034A000032408400590082000256A4631C2084ED2
:1034B0006946304601F00AFA10206A4631C2694670
:1034C000304601F003FA06B070BD00000010024063
:1034D0000004005070B5164886B0C26A02210A4343
:1034E000C262C06A0124084005900820114E0325DD
:1034F00000900194694603950294304601F0E6F984
:10350000102000900194694603950294304601F022
:10351000DDF920200090019469460395029430461D
:1035200001F0D4F904490020887106B070BD000094
:103530000010024000040050F4000020F0B50146E5
:1035400091B0401C02900978242909D102AA2A21AD
:1035500010F0C6FD044602990EF0EAFE012802D0E2
:10356000002011B0F0BD204602AA2C21029410F0D8
:10357000B7FDFEA10390FCF79EFE002805D1FD4992
:1035800001200870FC4900200870FCA10398FCF79A
:1035900092FEFC4C214610310F1F01910839089111
:1035A0001031264606911C36091F351D059100284D
:1035B00029D0F5A10398FCF77EFE00287ED0F4A167
:1035C0000398FCF778FE2646314660314036079175
:1035D000002874D0F0A10398FCF76DFE0028F8D005
:1035E000EFA10398FCF767FE002869D0EEA10398CD
:1035F000FCF761FE00287CD0EDA10398FCF75BFE90
:103600000028F8D056E302AA2C21029810F068FD99
:103610000390002812D001461422E748FCF762FE0E
:1036200000280BD00097221DE4A1089B0398FCF70B
:1036300073FE1422E0480399FCF729FE02AA2C210C
:10364000029810F04DFD002804D0007841287DD06C
:103650000020207002AA2C21029810F041FD0028C1
:1036600037D009A900910CAB0BAAD8A1FCF754FEE6
:103670000998FDF7A9F9FDF74BFA0022D64BFDF7A3
:1036800015F90A9003910C98FDF79EF9FDF740FAA1
:103690000022D24BFDF70AF9074607910B98FDF778
:1036A00093F9FDF735FA3A46079BFCF7E5FF039BD4
:1036B0000A9AFCF7E1FFFDF767FA02E08CE02BE1E4
:1036C0004DE22062FDF724FA02460B46C4A00BF03F
:1036D0009FFB02AA2C21029810F002FD002804D0C2
:1036E0000078532800D04E20287102AA2C2102987D
:1036F00000E09AE210F0F4FC002835D010A9009107
:103700000FAB0EAABAA1FCF707FE1098FDF75CF903
:10371000FDF7FEF90022B04BFDF7C8F800900791C5
:103720000F98FDF751F9FDF7F3F90022AB4BFDF7C8
:10373000BDF8074603910E98FDF746F9FDF7E8F945
:103740003A46039BFCF798FF079B00E042E0009A93
:10375000FCF792FFFDF718FAA062FDF7D9F90246CF
:103760000B469FA00BF054FB02AA2C21029810F0EC
:10377000B7FC002804D00078572800D045202873D3
:1037800002AA2C21029810F0ABFC00280AD00FF0FE
:1037900075FEFDF7BDF9994A994BFDF71FF8FDF746
:1037A000F3F9206302AA2C21029810F099FC00285A
:1037B00002D00FF063FE606302AA2C21029810F081
:1037C0008FFC002805D000968EA1069B059AFCF779
:1037D000A3FD6FE201203CE702AA2C21029810F021
:1037E0007FFC0390002812D0014614227248FCF797
:1037F00079FD00280BD00097221D70A1089B03982B
:10380000FCF78AFD14226C480399FCF740FD02AADC
:103810002C21029810F064FC002804D00078412884
:1038200078D00020207002AA2C21029810F058FCB9
:1038300000282CD009A900910CAB0BAA63A1FCF7BE
:103840006BFD0998FDF7C0F8FDF762F90022624BA5
:10385000FDF72CF807910A900C98FDF7B5F8FDF7E5
:1038600057F900225D4BFDF721F8074603910B98AD
:10387000FDF7AAF8FDF74CF93A46039BFCF7FCFE6E
:10388000079B0A9AFCF7F8FEFDF77EF9206202AA70
:103890002C21029810F024FC002804D00078532832
:1038A00000D04E20287102AA2C21029810F018FC9A
:1038B000002800D158E710A900910FAB0EAA4CA127
:1038C000FCF72AFD1098FDF77FF8FDF721F900229B
:1038D000414BFCF7EBFF0A9007910F98FDF774F846
:1038E000FDF716F900223D4BFCF7E0FF0746039178
:1038F0000E98FDF769F8FDF70BF93A46039BFCF7C4
:10390000BBFE079B0A9AFCF7B7FEFDF73DF9A062E4
:103910002AE7FFE7012085E702AA2C21029810F090
:10392000DFFB0390002812D0014614222248FCF746
:10393000D9FC00280BD00097221D20A1089B0398DA
:10394000FCF7EAFC14221C480399FCF7A0FC02AA2D
:103950002C21029810F0C4FB00287DD00FA9009103
:103960000EAB0DAA19A1FCF7D7FC51E0504D544BFA
:1039700030303100A4010020F4000020474E5252A4
:103980004D430000300700204750524D43000000D7
:103990004750474741000000474E4747410000005D
:1039A000475047535600000047504753410000001E
:1039B000474E475341000000F4090020253264259A
:1039C00032642532642E25346400000025326425DB
:1039D00032642E2534640000804F224100004E40A6
:1039E00025733A20252E3666B6C80A0D0000000061
:1039F0002533642532642E25346400006F1283C0A1
:103A0000CAA1FD3F253264253264253264000000DE
:103A10000F98FCF7D9FFFDF77BF80022AC4BFCF7C1
:103A200045FF00910A900E98FCF7CEFFFDF770F865
:103A30000022A84BFCF73AFF074601910D98FCF7CE
:103A4000C3FFFDF765F83A46019BFCF715FE009BA6
:103A50000A9AFCF711FE00E002E0FDF795F82062FB
:103A600002AA2C21029810F03BFB002804D0007819
:103A7000532800D04E20287102AA2C21029810F061
:103A80002FFB00282CD00FA900910EAB0DAA924954
:103A9000FCF742FC0F98FCF797FFFDF739F800227E
:103AA0008B4BFCF703FF039108900E98FCF78CFFFB
:103AB000FDF72EF80022874BFCF7F8FE0746009131
:103AC0000D98FCF781FFFDF723F83A46009BFCF7C1
:103AD000D3FD039B089AFCF7CFFDFDF755F8A062D4
:103AE00002AA2C21029810F0FBFA002804D00078DA
:103AF000572800D04520287302AA2C21029810F0E4
:103B0000EFFA002802D00FF0BEFC707002AA2C2140
:103B1000029810F0E5FA002803D00FF0B4FC0799E2
:103B2000887002AA2C21029810F0DAFA002802D03C
:103B30000FF0A4FCA06402AA2C21029810F0D0FA85
:103B4000002802D00FF09AFCE06302AA2C21029810
:103B500010F0C6FA002801D000783070AAE002AA5E
:103B60002C21029810F0BCFA002803D00FF08BFC37
:103B70005A49487002AA2C21029810F0B1FA002884
:103B800003D00FF080FC55498870544DA878012867
:103B900001D10020E87002AA2C21029810F0A0FAAE
:103BA000002803D00FF06FFC0799C870002602AA06
:103BB0002C21029810F094FA002805D00FF063FC35
:103BC000E97809010919486602AA2C21029810F027
:103BD00087FA002805D00FF056FCE9780901091989
:103BE000886602AA2C21029810F07AFA002805D0E3
:103BF0000FF049FCE97809010919C86602AA2C21CD
:103C0000029810F06DFA070005D00FF03CFCE9783F
:103C1000090109190867E878401CE870002F49D0AD
:103C2000761CF6B2042EC2D344E002AA2C210298DC
:103C300010F056FA002802D00FF025FCB07002AA4E
:103C40002C21029810F04CFA002802D00FF01BFC37
:103C5000F070002502AA2C21029810F041FA0028E9
:103C600004D00FF010FC6119403188756D1CEDB265
:103C70000C2DEFD302AA2C21029810F031FA002863
:103C800004D00FF0FBFB15496064086102AA2C21E7
:103C9000029810F025FA002802D00FF0EFFBA06484
:103CA00002AA2C21029810F01BFA002802D00FF073
:103CB000E5FBE0640A49206A884201DD00202062B9
:103CC0000849A06A884201DD0020A062012048E482
:103CD000804F224100004E40F0390008F4000020DF
:103CE0000000B4420000344330B519498A68012A03
:103CF0001DD00C4625790023164A2C02242817D003
:103D00004D79FE2D04D2A418641960706D1C4D719C
:103D1000C868401CC860FF2809D108790002135404
:103D20008218487912185370401C4871CB6030BD1E
:103D3000012010556D1CECB20C71052C00D90B71D3
:103D40000C79242524021355A41865704871DFE707
:103D5000F4000020080A002006498000095806489F
:103D6000091803D0C14203D00020704701207047DA
:103D70000220704720540108702FFCFF10B5094A3B
:103D80000021CB00D458844207D89B189B688342FB
:103D900003D9C8008018007910BD491CC9B2152983
:103DA000EFD3FEE7044D010830B593B038216846E3
:103DB000FCF74EFA01250024059508200A9400908E
:103DC000684601F0D3F9002801D0FFF783F81B49BA
:103DD0001B4812C004601B4984604160083802F02F
:103DE00085F9002801D0FFF775F81421144802F076
:103DF000A0F80C2010900E9400220EA90F9511949B
:103E00000F4802F0CDF8002801D0FFF763F8002139
:103E10000B4802F099F9002801D0FFF75BF80A4C33
:103E2000A0680228FCD10021054802F0B1F904483D
:103E300002F046F9606813B030BD00000008014090
:103E400018050020FFFF000008000020F8B5054617
:103E500004464035287D0026012808D00120287519
:103E6000206881688907890F01290ED101E00220AD
:103E7000F8BD0168C90708D0A06D20210843A065DE
:103E80000126002028753046F8BDA16DFF220132C1
:103E9000914302221143A165C1688907890F0091EE
:103EA000C16889088900C160206881689207114350
:103EB000816000F0DDFD07460EE000F0D9FDC01B7B
:103EC0000A2809D9A06D0221884310210843A06562
:103ED000002028750120F8BD206880680028ECDBF0
:103EE0002068C168009A1143C160A06D80088000FD
:103EF000401CA065C5E70000F8B506460D464036F3
:103F0000317D01290DD00121317501688A68520780
:103F100009D5816D20221143816500203075012073
:103F2000F8BD0220F8BD174B6A68D80547109A42C1
:103F3000154C8A6A2B6812D05B035B0B1A438A62AA
:103F40002968490305D5A1680143A1600A20FDF74E
:103F5000A7FA2868800312D5A06838430EE05B03F7
:103F60005B0B9A438A622968490302D5A1688143A1
:103F7000A1602868800302D5A068B843A060002033
:103F80003075F8BD01100000002701400068006C8A
:103F90007047000070B5040006D0A06D26460025CD
:103FA0004036002802D006E0012070BDE565357579
:103FB000204600F0D1F8A06DC00603D421688868BF
:103FC000400705D5A06D10210843A0653575EBE7C6
:103FD000A06DFF220132904302221043A065886841
:103FE0008207920F5A48012A02D10A68D2072BD1C0
:103FF000032362689B079A4205D05B429A4202D033
:104000005B009A4209D10A69920092080A6121680C
:104010000A6963681A430A610CE00A69920092080F
:104020000A6181680F22920491438160816862680D
:10403000114381602168CA6818239A43CA602168C5
:10404000CA68A3681A43CA60816801225206914374
:1040500081608168228F52061143816020688168E7
:10406000C90004D4816801221207114381602068CD
:10407000C168384A1140C1602169E068022923D033
:1040800000210843216A226B49035200114308436F
:10409000616B0843A16989030843E169C9030843C7
:1040A0002168CA681043C860A06A0146FF39C23956
:1040B00005D0E16A08432168CA681043C860606A95
:1040C0000121012802D00BE00421DAE7206A002850
:1040D00023D0A06D20221043A065E06D0843E06569
:1040E000206C012820681FD00169C90703D001692D
:1040F00049084900016120684169C908C900416156
:1041000020684169E26B11434161E565A06D80085B
:104110008000401CA065002070BD2068C26801239B
:104120001B041A43C260DBE70269FF239B009A432A
:10413000026120680269636CE66C1A43A36C334326
:104140001A430261206802690A430261D3E7000052
:10415000002701401902FEFF7047F8B50446406988
:10416000254640350E4608280BD02068C068C00799
:1041700009D0A06D20210843A065002028750120EA
:10418000F8BD082700E00C2700F072FC009011E059
:10419000701C0FD0002E05D000F06AFC0099401A68
:1041A000B04207D9A06D04210843A06500202875FE
:1041B0000320F8BD206800683842E9D0A06D0121D5
:1041C00049020843A0652068C16809058A0F0C21CF
:1041D000002A1AD1226A002A17D10268120714D5C0
:1041E000826853070122002B08DB43688B4343603E
:1041F000A06D130298431043A06506E0A06D202334
:104200001843A065E06D1043E065A069002801D166
:10421000206801600020F8BD70B5044621680020C8
:104220008968490721D425464035297D01291CD0BC
:1042300001212975E169012904D02046FDF742F9E1
:10424000002811D1A16D0A4A1140FF220132114309
:10425000A1650021E165297522681C211160216892
:104260008A6804231A438A6070BD022070BD000072
:10427000FEF1FFFF0248416849084900416070476C
:104280000058014002484168042291434160704750
:104290000058014002484168022291434160704742
:1042A0000058014070B5002402462032517902299D
:1042B00003D00421C16301243CE001680B680E2592
:1042C000AB430B6001680B685B085B000B601A4B2B
:1042D0000168994201D1012121E0174B1433994221
:1042E00001D110211BE0144B2833994201D18915CB
:1042F00015E0114B3C33994201D189140FE00E4B6C
:104300005033994202D10121090408E00A4B643379
:10431000994202D10121090501E001210906064B5C
:10432000083B59600121517100211171816B0029F5
:1043300000D08847204670BD08000240F8B504460A
:104340009D4801689C4A9C4E9B4F0832206813048C
:104350001C363037904201D108221EE0B04201D114
:1043600080221AE0B84202D10122D20215E0924A1C
:104370004432904202D10122D2030EE08E4A5832DA
:10438000904201D11A4608E08B4A6C32904202D129
:104390000122D20501E00122D20625461140203536
:1043A00000293BD00168090738D5016808229143EC
:1043B0000160814920680831884201D108201EE04F
:1043C000B04201D180201AE0B84202D10120C002DF
:1043D00015E079494431884202D10120C0030EE042
:1043E00075495831884201D1184608E072496C314C
:1043F000884202D10120C00501E00120C0066E49BB
:104400004860E06B01210843E063042068710020EC
:104410002871616B002901D02046884766480168F1
:10442000654A206808321315904201D104221EE02B
:10443000B04201D140221AE0B84201D11A4616E03A
:104440005D4A4432904202D1012292030FE05A4A5F
:104450005832904202D10122920408E0564A6C324E
:10446000904202D10122920501E0012292061142FE
:1044700038D00168490735D50168890603D4026838
:1044800004218A4302604C4920680831884201D1E6
:1044900004201EE0B04201D140201AE0B84201D110
:1044A000184616E044494431884202D10120800375
:1044B0000FE041495831884202D10120800408E0D0
:1044C0003D496C31884202D10120800501E0012084
:1044D00080063949486005206871216B002901D0A8
:1044E0002046884734480168334A2068083253150B
:1044F000904201D102221EE0B04201D120221AE0F6
:10450000B84201D11A4616E02B4A4432904202D1F9
:10451000012252030FE0284A5832904202D1012270
:10452000520408E0244A6C32904202D10122520522
:1045300001E00122520611423CD00168890739D5B9
:104540000168890603D401680222914301601A4977
:1045500020680831884201D102201EE0B04201D11A
:1045600020201AE0B84201D1184616E01249443121
:10457000884202D1012040030FE00F4958318842A0
:1045800002D10120400408E00B496C31884202D17D
:104590000120400501E00120400607494860E06B2A
:1045A000E0630120687100202871E16A002901D0D0
:1045B00020468847F8BD00000000024070B5002882
:1045C00005D0034620335979002902D003E00120A9
:1045D00070BD0021197102215971046822683749A0
:1045E000C5680A40816846692943056935432943FE
:1045F00085692943C5692943056A29431143216017
:104600002F492F4C02687831A24206D18A6A1209DA
:1046100012018A628A6A406849E0294C1434A24235
:1046200007D18A6AF024A2438A628A6A406800013C
:104630003DE0234C2834A24208D18A6A0F24240288
:10464000A2438A628A6A4068000230E01C4C3C3413
:10465000A24208D18A6A0F242403A2438A628A6A8A
:104660004068000323E0164C5034A24208D18A6A05
:104670000F242404A2438A628A6A8088000416E018
:104680000F4C6434A24208D18A6A0F242405A24345
:104690008A628A6A8088000509E08A4209D18A6AAA
:1046A0000F242406A2438A628A6A00790006024324
:1046B0008A6201205871002070BD00000FC0FFFF0A
:1046C00008000240F8B5044620300579012D1ED0BF
:1046D000012505710226467120680768AF4307600F
:1046E0002046FEF7FBFA206801683143016020682C
:1046F0000168042211430160206801680822114307
:10470000016020680168294301600020F8BD022093
:10471000F8BD01B50098FEF7F0FA08BD03484168FE
:104720000122114341600020704700000020024038
:10473000F8B5124D0746287C14460E46012807D0CE
:10474000012028740E48FEF725FC002802D00CE05A
:104750000220F8BD00216961022F09D0012F09D084
:10476000002F09D00648FEF715FC00212974F8BD7A
:104770003460FAE73480F8E73470F6E76C12002012
:1047800050C3000005484168C90705D00449C1600D
:104790000449C1600020704701207047002002409A
:1047A000EFCDAB8905040302F8B51A4E0546307CFF
:1047B0000F46012807D0012030741748FEF7EAFBA6
:1047C000010002D021E00220F8BD0020C043386083
:1047D0006C6814E02046FEF77FFB0F48FEF7DAFB1B
:1047E00001460E48426808239A43426042684315D6
:1047F0009A434260002901D03C6006E08034A868FA
:104800006A68C0018018A042E4D8002030740846CD
:10481000F8BD00006C12002050C3000000200240D0
:1048200003484168022211434160002070470000A4
:1048300000200240F8B50C4C1646207C0F4601289B
:1048400008D0012020740948FEF7A4FB00250028A9
:1048500002D006E00220F8BD65613E600348FEF725
:1048600099FB2574F8BD00006C12002050C30000B5
:104870000948416889070CD54168C90703D0074931
:10488000C1600749C1600749016107490161002012
:10489000704701207047000000200240EFCDAB8937
:1048A00005040302BFAE9D8C1615141310B502F05B
:1048B000DFF810BD10B504494A69024202D04861D0
:1048C000FFF7F4FF10BD000000040140F8B500231D
:1048D0000124A7E027469F403A4070D04D68022D42
:1048E00001D0122D14D1DD08AD002D1800952D6AD0
:1048F0005E07AC46F50E0F26AE46AE406546B543A4
:10490000AC460E697546AE4065462E43009D2E624C
:104910004D68012D05D0022D03D0112D01D0122D8F
:1049200016D185680326AC465D00AE46AE406546AE
:10493000B543AC46CE687546AE4065462E438660AC
:1049400046680D79BE43ED06ED0F9D403543456049
:1049500006685F000325BD40AE46AE430D79B44600
:10496000AE07B60FBE4065462E430660C668754664
:10497000AE438D68BD403543C5604D68ED0050D5F0
:104980002B4D6E6B26436E639E082A4DB60075193B
:10499000AC46AD689E07360F0F27B740BD430527CD
:1049A0003F07B84201D100271AE0234FB84201D196
:1049B000012715E0214FB84202D1022710E030E074
:1049C0001F4FB84201D103270AE01E4FB84201D160
:1049D000042705E01C4FB84201D1052700E0062757
:1049E000B7402F436546AF60184D2E684F68964319
:1049F000FF0300D516432E606E684F689643BF03D1
:104A000000D516436E60AE684F689643FF0200D52E
:104A10001643AE60EE684F689643BF0200D516435A
:104A2000EE605B1C0A681546DD4000D052E7F8BD19
:104A30000010024000000140000400500008005037
:104A4000000C005000100050001C005000040140F9
:104A50000069084000D00120704742694A40426125
:104A60007047002A01D08161704781627047000061
:104A700001480068704700008801002070B50400FC
:104A80000FD021681348086021681348086003CCE0
:104A900041602068083C21688860FFF7E9FF05460F
:104AA00008E0012070BDFFF7E3FF401B302801D96B
:104AB000032070BD2068C0680028F4D12068026916
:104AC000E1688A4201D0016101E0044901600020EF
:104AD00070BD0000CCCC000055550000AAAA000013
:104AE000006802490160002070470000AAAA000087
:104AF00002480168491C01607047000088010020DD
:104B000010B506480168022211430160032000F03D
:104B100007F800F007F8002010BD00000020024058
:104B20000020704710B50848816B0204114381636F
:104B300000F02CF800F022F8044801680822114324
:104B4000016000F013F810BD001002400020024088
:104B5000C106C90E01208840014908607047000065
:104B600000E100E010B504F08DFE10BD02480168C0
:104B7000021511430160704700700040024801684F
:104B800042151143016070470070004002480168FF
:104B9000102291430160704700700040094B1A6871
:104BA0009208920002431A600748026904239A435C
:104BB0000261012903D040BF20BF20BF704730BF32
:104BC000704700000070004000ED00E00A4B1A68DA
:104BD0009208920002431A600848036904221343B2
:104BE0000361012906D040BF20BF20BF0169914366
:104BF0000161704730BFF9E70070004000ED00E050
:104C0000F8B56649074601250020ED03624B634A6B
:104C10004031102F6FD011DC012F77D0022F6CD0D4
:104C2000042F6BD0082F24D1C9680324240321400A
:104C30007BD0BD026C10A9427CD0A0E00326584C6A
:104C40003604202F0BD0402F35D0FF3F012F10D13D
:104C5000C968314069D07C04A1426BD096E00B69F1
:104C60000969012731403F04B94203D1990559E050
:104C70002846F8BD01256D04A94203D19907F8D54E
:104C80004848F8BDB142FCD111688903F9D51168D3
:104C900003200005014001200005091A09D0091A66
:104CA00005D0814201D14048F8BD2046F8BD3F48BB
:104CB000F8BD3F48F8BDC9680125AD06294006D0BA
:104CC000A942F7D191688907F4D53A48F8BD11682F
:104CD0008901FBD5D068D1688002374D000F2D5C6B
:104CE0000802810FD068491CC0030AD41068C006AE
:104CF00005D5204606E045E008E023E030E0184610
:104D000000E02E486843FBF7F3F9F8BDCC68A40730
:104D1000A40F0CD0022C0DD0012C10D0032CF4D1F8
:104D2000096989050029A3DBF8BD16E002E000F05F
:104D3000D1F9F9E711684907F6D51846F4E700F00C
:104D4000D9F9F1E7CC680C26344006D0082CF1D014
:104D5000042CF4D00C2CE3D0E6E700F0ABF9E3E749
:104D6000CC680326B6023440F7D00127FF02BC42CC
:104D7000E0D07A109442E2D0B442D1D0D4E7A1423C
:104D8000DDD0D1E7916B4902E7D4CDE701221204CF
:104D90009142D4D0C8E700000024F4000010024083
:104DA00000093D008890000020A1070040420F004C
:104DB00080841E00006CDC022C4E010800127A0078
:104DC000F8B5044600785E4D800672D55C4E00272B
:104DD000403EB06BC00004D4B06BA9050843B0637B
:104DE000012758480168C90511D40168821511438B
:104DF0000160FFF73DFE009005E0FFF739FE0099E6
:104E0000401A642837D84F480068C005F5D5326885
:104E10000321090560680A400140914208D08103DE
:104E2000890F032904D13168890301D50120F8BD18
:104E30002A69032109040A4022D0084090421FD069
:104E4000207880061CD528692A6988430121C90475
:104E50000A432A612A698A432A612861C0050FD55D
:104E6000FFF706FE009008E0FFF702FE0099411AE6
:104E70003548814201D90320F8BD28698005F3D562
:104E800061688803800F032805D1326800058243DA
:104E900001400A433260286903226168120411400C
:104EA00008432861002F04D0B06B01210907884313
:104EB000B0632078C00705D0E868A168800880004A
:104EC0000843E8602078800705D5E8680C2188430E
:104ED000E1680843E8602078400706D5E8680321C8
:104EE0008902884321690843E8602078000706D5D5
:104EF000E86803210903884361690843E860208862
:104F0000C00506D5E868032109048843A169084360
:104F1000E8602078400606D5E868012189068843C4
:104F2000216A0843E8602078000606D5E868032176
:104F300089048843E1690843E8600020F8BD000067
:104F4000401002400070004088130000F8B505468C
:104F500053480E460068C007C00FB0420AD25048FE
:104F6000016849084900314301600068C007C00F6B
:104F7000B0426FD128784B4C800705D5E068F0210E
:104F80008843A9680843E0602878C00752D0686861
:104F9000022817D0032818D02168012818D08905C5
:104FA000002957DAE168890889000143E160FFF7C9
:104FB0005FFD69680746022912D003291CD0012928
:104FC00026D033E021688903EAE721688901E7E711
:104FD0004907E5E7FFF74CFDC11B3348814223D861
:104FE000E0680007800F0228F4D123E0FFF740FDBE
:104FF000C11B2D48814217D8E0680007800F0328A5
:10500000F4D117E0FFF734FDC11B274881420BD8CC
:10501000E0680007800F0128F4D10BE0FFF728FDBE
:10502000C11B2148814201D90320F8BDE068000777
:10503000800FF3D11A480168C907C90FB1420BD9D3
:10504000016849084900314301600068C007C00F8A
:10505000B04201D00120F8BD2878400706D5E068AD
:10506000072109028843E9680843E06028780007BF
:1050700007D5E0680721C90288432969C9000843A8
:10508000E06000F037F8E168084A0906090F515C52
:10509000C840074908600320FFF742FD0020F8BD23
:1050A0000020024000100240881300001C4E01083E
:1050B00084010020044805490068C968044A49057C
:1050C000490F515CC8407047840100200010024025
:1050D000354E0108044805490068C968044A890436
:1050E000490F515CC8407047840100200010024005
:1050F000354E010810B5184AD1680C200840042824
:105100000BD0082810D00C2810D050680004410F94
:105110000120C003491C884010BD1068C00601D59D
:105120000E4810BD0E4810BD0E4810BD88020E4B33
:10513000000F185C0902D368890F491CDB0301D5F5
:10514000084A05E01268D20601D5044A00E0044A84
:105150005043FAF7CDFF10BD0010024000093D009A
:105160000024F40000127A002C4E0108F8B5044621
:105170000078FF4DC0074CD0E8680007800F022878
:1051800007D0E8680007800F032809D1E868C0034A
:1051900006D5286880033CD56068002875D038E0C3
:1051A000012062680004824203D12968014329601A
:1051B00011E0052301211B0489049A422A6802D1C7
:1051C0000A432A60F1E782432A602A68024000927B
:1051D000286888432860606800280DD0FFF748FCE5
:1051E0000646E44F04E0FFF743FC801BB8427DD83D
:1051F00028688003F7D50CE0FFF73AFC0646DD4F40
:1052000004E0FFF735FC801BB842F0D82868800323
:10521000F7D42078800741D5E8681F270007800F62
:105220003F02012807D0E8680007800F032809D152
:10523000E868C00306D42868400717D5E06801284D
:1052400023D113E0E068002817D029680922914390
:1052500001432960FFF70CFC064604E0FFF708FC59
:10526000801B0228C3D828684007F7D568682169E1
:10527000B84309020843686010E02868400840000D
:105280002860FFF7F5FB064605E090E0FFF7F0FB2E
:10529000801B0228ABD828684007F7D42078C006C6
:1052A00076D5E868B44E0007800F0BD0E06900287F
:1052B0005DD02868FF21013108432860FFF7D8FB43
:1052C000074644E02868800502D5E06900286ED0D2
:1052D000606A69683140884212D905F0B3FD002840
:1052E000AED16868616AB043084300E0E4E06860FA
:1052F0006868218C0002000A0906084368600FE014
:105300006968B143014369606868218C0002000A42
:10531000090608436860606A05F094FD00288FD193
:10532000606A410B0120C003491C8840E968934A28
:105330000906090F515CC840914908600320FFF736
:10534000EFFB25E0FFF794FBC01B02288AD82868F2
:105350008005F7D56868616AB0430843686068688B
:10536000218C0002000A09060843686010E02968E1
:10537000FF20013081432960FFF77AFB064604E0F5
:10538000FFF776FB801B022884D828688005F7D4B5
:1053900020787C4E000723D560690028306910D042
:1053A000012108433061FFF763FB074605E009E18F
:1053B000FFF75EFBC01B02287ED830698007F7D557
:1053C0000EE0400840003061FFF752FB074604E062
:1053D000FFF74EFBC01B02286ED830698007F7D458
:1053E0002078400761D5A86B0027C00005D4A86BC2
:1053F000012109070843A863012763480168C9051B
:1054000011D40168821511430160FFF731FB009050
:1054100005E0FFF72DFB0099401A64284CD85A4844
:105420000068C005F5D5FF20A2680130824203D193
:1054300031690143316111E001218902002A07D05D
:1054400005231B029A4203D132690A433261EFE716
:10545000326982433261306988433061A068002834
:105460000ED0FFF705FB009006E0FFF701FB009967
:10547000411A404881421FD830698005F5D50DE0BA
:10548000FFF7F6FA009006E0FFF7F2FA0099411AEA
:105490003848814210D830698005F5D4002F04D0F7
:1054A000A96B012000078143A9632078800630D5CD
:1054B0003649A0694A1400E07DE0002816D0AB68A8
:1054C00001200343AB606B6B03436B63086A1043BB
:1054D0000862FFF7CDFA064604E0FFF7C9FA801B21
:1054E000022868D8A8688007F7D512E0A8684008A5
:1054F0004000A860086A90430862FFF7B9FA0646C0
:1055000004E0FFF7B5FA801B022854D8A86880078A
:10551000F7D4A06A002853D0E9680907890F032946
:1055200050D0012636060228286805D0B0432860EE
:10553000FFF79EFA044640E0B0432860FFF798FA70
:10554000074604E0FFF794FAC01B022833D8286806
:105550008001F7D4216BE06AEA680843616BFD23A0
:105560001B049A4311430843E860286830430FE066
:10557000001002408813000000E000001C4E0108EB
:1055800084010020401002400070004000000140F3
:105590002860FFF76DFA044604E0FFF769FA001B84
:1055A000022808D828688001F7D509E0FFF760FADB
:1055B000001B022801D90320F8BD28688001F5D41A
:1055C0000020F8BD0120F8BD30B5014620310A7831
:1055D000012A15D001220A7002234B700468CA23E5
:1055E000636204685323636203689C6820252C432C
:1055F0009C600068FF2343624A700020087030BD41
:10560000022030BD10B509F025FB10BDF8B50546E8
:1056100004462035287801281DD00120287002205A
:1056200068702268CA205062226853205062FF20AE
:1056300001300026FF2781421CD121688A688243FD
:105640008A60206881680122120391438160FFF71C
:105650000FFA009009E00220F8BDFFF709FA00995F
:10566000411A7D20C00081421BD82068C068C00755
:10567000F3D020E0206881680122520291438160CA
:1056800020688168120191438160FFF7F1F9009071
:105690000DE0FFF7EDF90099411A7D20C00081422D
:1056A00005D920684762032068702E70F8BD206815
:1056B000C0688007EDD520684762012068702E70B1
:1056C0000020F8BD10B500680B464068C021C943F2
:1056D00001400002000ECC04D870E40E5C708C0611
:1056E000A40E0904490F9C701970002A0AD105F014
:1056F000E5FBD870587805F0E1FB5870987805F014
:10570000DDFB9870002010BD30B50B460168896A3A
:105710005960016809694904490C99600068046886
:105720000F482146014088024D04800E18706D0E0E
:1057300049065D70490E99706102490E402421406E
:10574000D970002A0AD105F0B9FB1870587805F015
:10575000B5FB5870987805F0B1FB9870002030BD0B
:105760007F7F7F0070B5040005D02546203568781E
:10577000002802D006E0012070BD002028702046DD
:1057800000F042F8022068702168CA20486221684F
:1057900053204862204605F0A4FBFF210028206822
:1057A00003D0416204206870E5E78268154B1A4017
:1057B0008260226890686368A6691843236933434E
:1057C000184390602268E0681061206802692389AC
:1057D0001B041A4302612068C26880239A43C26096
:1057E0002068C26C92089200C264E2696069024358
:1057F0002068C36C1A43C26420684162012068704B
:10580000002070BDBFFF8FFF00B597B0042000904F
:1058100000200A90FF20013002906846FFF7A6FCA6
:10582000002801D0FDF756FB20200E90C0020F90FB
:105830000EA8FFF7C5FA002801D0FDF74BFB08487A
:1058400001690122920411430161002211460220E4
:10585000FFF788F90220FFF77BF917B000BD0000C1
:1058600040100240FEB506460446203630780B460E
:10587000012842D0012030700220707020681D463F
:10588000002720358068002A39D0400655D5187881
:1058900005F014FB287805F011FB197898780904B5
:1058A00008435978DA780902120411430843297829
:1058B00009060843D96908435969084305469969A7
:1058C0005868084300902168CA2048622168532024
:1058D0004862FF205A6A0130802182424AD1226800
:1058E0009368834393602268D0680840FF38823809
:1058F000D060FFF7BDF8019029E00220FEBD400610
:1059000000D4DF70187805F0E1FA0204587805F049
:10591000DDFA00020243987805F0D8FA0243D878FD
:1059200000040243287805F0D1FA00060243D86942
:105930000243586902431546C1E7DF70AAE7FFF743
:1059400097F80199411A7D20C00081422AD8206829
:10595000C068C007F3D02068C5612168009848641A
:1059600020688168FF2201321143816020688168CC
:10597000120130E02068826801235B029A43826052
:105980002068C2680A401D495118C160FFF770F8CD
:1059900001900EE0FFF76CF80199411A7D20C000DC
:1059A000814206D92168FF20486203207070377059
:1059B000FEBD2068C0688007ECD5206805622168BC
:1059C0000098886420688168012252021143816036
:1059D0002068816812011143816009480268012131
:1059E00049040A43026082680A4382602168FF20FA
:1059F00048620120707037700020FEBD7FFDFFFF00
:105A000000040140F8B505460446203528780B46C9
:105A1000012815D001202870022068705878002ACB
:105A200010D005F04BFA987805F048FAD8789E78AF
:105A3000000406435878197800024903084316E029
:105A40000220F8BDC10603D5EF2108400A30587086
:105A5000D87805F03BFA0604587805F037FA0002CA
:105A60000643987805F032FA064318784003064357
:105A70002168CA204862216853204862204605F008
:105A800030FA0027002811D11048064020684660EF
:105A90002068C16880229143C160206880688006C8
:105AA0000CD4204600F08CF8002807D02168FF2095
:105AB0004862042068702F700120F8BD2168FF2023
:105AC0004862012068702F700020F8BD3FFFFF0082
:105AD000F8B506460446203630780D4601280ED02B
