:020000040800F2
:1000000090270020D500000895980008AD710008E1
:1000100000000000000000000000000000000000E0
:10002000000000000000000000000000DFC7000822
:10003000000000000000000049A70008ADEC000827
:10004000E7000008E7000008EBAF0008E700000841
:10005000E70000085D2E00086D2E00087D2E0008C8
:10006000E7000008E7000008E7000008A12D0008ED
:10007000E7000008E7000008E7000008E7000008C4
:10008000E7000008E7000008E700000800000000A3
:1000900095ED0008E7000008E7000008E700000809
:1000A000E7000008E7000008E7000008FDF6000888
:1000B000E700000885AF000800000000E700000826
:1000C0000348854600F09EFF004800473134010890
:1000D000902700200448804704480047FEE7FEE7D9
:1000E000FEE7FEE7FEE7FEE741ED0008C10000087D
:1000F00030B50B46014600202022012409E00D46C0
:10010000D5409D4205D31D469540491B2546954047
:1001100040191546521E002DF1DC30BD70B500248B
:100120002546002801DA01244042002901DA012590
:100130004942FFF7DDFFAC4200D04042002C00D026
:10014000494270BDF0B51FB40646002082B0054696
:100150004024019100901BE0019922460F46304651
:1001600000F03EFD049A059B801A994110D3104679
:100170001946224600F024FD361A8F410197224687
:1001800001200021009F00F01BFD38184D41009018
:100190002046641E0028DFDC019B00982946324679
:1001A00007B0F0BDF0B51FB486B0002000900190FC
:1001B00002900698069980B204900798090C0204F0
:1001C0000014114307900027089D099806913E46A8
:1001D0003C4603900398A9B20204000C03900498D3
:1001E0002D0C154348430021224600F0E9FCC719B5
:1001F000714110340E46402CECDB3846029A00F078
:10020000DFFC009A019B80180090594102980191EF
:10021000103002904028CCDB00980BB0F0BD0346B4
:100220000B439B0703D009E008C9121F08C0042A2A
:10023000FAD203E00B780370401C491C521EF9D21D
:100240007047D2B201E00270401C491EFBD27047D9
:100250000022F6E710B513460A4604461946FFF792
:10026000F0FF204610BD10B5044605E00B78037082
:10027000401C002B00D0491C521EF7D2204610BD56
:10028000421C0178401C0029FBD1801A704710B530
:10029000002200E0521C835C8C5CA34201D1002B45
:1002A000F8D1D8B2E1B2401A10BD03460A78027004
:1002B000401C491C002AF9D11846704730B5054644
:1002C0000020034600E05B1C934205D2EC5CC85C56
:1002D000201A01D1002CF6D130BD0321001D401E93
:1002E000037812021A43491EF9D5104670470000E0
:1002F0000FB400B58DB009900B9010A900200091AB
:10030000C0430A9000200C900648069006480790CB
:100310006A4609A80F9900F09DFC0DB008BC04B016
:1003200018470000750C0008950C0008FFB5002761
:10033000FF4383B000205C6801909E681D46A96958
:100340007F1C049888470090296A88470028F6D1C6
:100350000098401C0CD0032040028443002E19DD7D
:10036000600614D500982B2809D02D280FD103E062
:100370000020C04307B0F0BD012080020443A969FA
:100380007F1C04988847761E0090002E02DD00989E
:10039000302803D00598002825D035E00120400200
:1003A0000443A969761E7F1C049888470090002E9C
:1003B00003DD782805D0582803D00598002810D0F0
:1003C00022E00598002801D010281DD1012040020C
:1003D0008443A969761E7F1C0498884700901020EA
:1003E00002E0082000E00A2005900DE0012149020A
:1003F0000C43059A0199761E514308180190A9698A
:100400007F1C049888470090002E05DD0599009810
:1004100000F00AFC0028E9DAE96904988847A00599
:1004200002D40120C043A5E7E00722D1600611D520
:100430006005019800D5404229680A1D2A600968B4
:10044000220501D5087014E0220701D5088010E0CC
:1004500008600EE02868011D29600068210502D5AA
:100460000199017005E02107019901D5018000E0A3
:10047000016038467EE770B506460FF0F5F904686E
:1004800005460A220021304600F016FC2C6070BDA3
:10049000F8B502464A40D40F42004B0052085B08B0
:1004A0009A4202D20246084611464A0023D0C30DA2
:1004B0004A00DDB2120EAD1A202D35DA49020126AE
:1004C000490AF6058A19002C00D0524220214F1B00
:1004D0001146B9402A411018C20D9A4221D0002C71
:1004E00017D0012D08DCDA05801AD20F8019D20747
:1004F000DBB200F021FCF8BDDA05801A01234000D0
:100500001B06C01880185A428018CA0F10434900B1
:1005100007E04908C2071143DA05801A801940082C
:10052000801800F001FCF8BD61000122511A001B87
:10053000F7E70122D2075140AAE70122D207504033
:10054000A6E7024670B54A40D30FDB0740002DD026
:100550004A002AD0010E140E000212020919400AA4
:10056000520A8418E50104465443000A120A2E0474
:100570005043A4194219200CC543AA18120C012596
:10058000AD03521C521912047F39240400D0521CAE
:10059000104301D44000491EC2B20C06C009201805
:1005A000401C4008802A02D003E0002070BD4008B3
:1005B0004000002900DA0020184370BD70B50246E3
:1005C0004A40D50F40004A00ED0740085208002875
:1005D00014D0002A12D0C40DD30D41020120C00551
:1005E0005202490A520AE41A091812187D3491423B
:1005F00001D3641C00E04900002C01DA002070BD2A
:100600000023914201D3891A03434008490000287E
:10061000F7D100290AD0914202D10121C90705E092
:10062000914201D2012101E00121C943E005C01836
:10063000401900F079FB70BD420005D04200120E57
:1006400052428A4201DB00207047C90508187047F2
:10065000F0B507460846584087B0C00F04904800E0
:100660000E46590040084908BC1A884105D2384650
:1006700031461E4617460B460246580040081043B6
:100680004CD0300D039040055900400D490D0590A8
:10069000401A0290402872DA18030121000B090564
:1006A0000843019004980092002805D00199524215
:1006B0000020884100920190029840210A1A019975
:1006C000009800F07DFA05460C466B4607CB00F01B
:1006D00098FAC0197141039A0E0D0023D71756409E
:1006E0001A467A40164344D0049A002A2DD0029A22
:1006F000012A039A15DC1205C01A9141012636051C
:10070000001C7141D20F059ED20700930192029600
:100710002A46234600F075FB07B0F0BD3846314647
:10072000FAE71605224A0F46B218C01AB74101214E
:100730000905001C4F4100187F41114618187941E6
:10074000E20F10436D19644113E0E2076D08154391
:100750006408C2071443039A01261205C01A914186
:100760003605001C7141CE07400830434908C018C7
:1007700051412A46234600F037FBCDE7FFE70498B6
:1007800001224000C117121A00238B410498314600
:10079000C417381AA141EEE730B40124E4076340DE
:1007A00030BC55E730B40124E407614030BC4FE76A
:1007B0000000E0FFF0B51FB488B00B990998002441
:1007C00048400999C00F490049080991C0070B9991
:1007D0000090490049080B9109990898A6460843DA
:1007E0001CD00B990A98084318D00998012440009E
:1007F000420D4800410D099824050003000B2043D9
:1008000009900B980003000B20430B9050181C49D3
:100810004018002201901446104605E000200146D1
:100820000DB0F0BD032801DA034600E003239C4627
:10083000C11A0AAE0AE05F0008ADED5B4F00F75B3E
:100840007D430027AA187C41491C5B1E6145F2DDEF
:10085000410004AB5A522104120C0A43240C401CE0
:100860000828DFDB01980290009970460191009002
:10087000059B049A0799069800F0C3FAD0E7000098
:100880000DFCFFFFF0B50C465C4085B0E40FE407BB
:1008900003944C0000266408590094464908024617
:1008A0000296224321D062460A431ED06200570DB1
:1008B0004A000E032303550D012402462C4924054A
:1008C000781B1B0B360B40182343264361460090D0
:1008D0001C46501AB44103D30098401C009002E01B
:1008E000921800985B41002803DA0020014605B009
:1008F000F0BD0020012109050746864611E0644647
:100900001D46141BB54106D36546521BB3417446C0
:1009100007430C43A646CD074008490828439218D0
:100920005B4105460D43EAD11046184313D060469B
:10093000194650407140084306D06046101AB34132
:1009400006D20122002306E000220123DB0702E099
:100950000122D2435310009874460105381C6141AE
:10096000029C039D0019694100F03EFABFE70000B8
:10097000FD03000070B54B005B0803430BD04B0038
:100980005C0D002633466542B341D417AD1AA3412E
:1009900002DB0020014670BD12053018514170BDC8
:1009A000C217C10F504010B54018CA079623002146
:1009B00000F0C2F910BD10B500229623114600F0D8
:1009C000BBF910BD0EB5C217C10F5040CA07401881
:1009D0000021054B0293019200910A460B4600F05C
:1009E00010FA03B000BD0000330400000EB5054945
:1009F0000291002100910A460B46019100F001FA94
:100A000003B000BD33040000C20F410040020123C7
:100A1000400ADB05D207090EC0187F2901DA002041
:100A20007047962903DC9623591AC84001E096398D
:100A30008840002AF4D04042704741004002012221
:100A4000400AD205090E80187F2901DA002070477C
:100A5000962903DC9622511AC8407047963988407F
:100A60007047000070B5CD0F4A0009030123090B40
:100A70001B0519430B4BED070024520D9A4201DA76
:100A8000002070BD074B34339A4203DC9A1A00F001
:100A9000A7F802E00449511888402C43F1D04042A5
:100AA00070BD0000FF030000CDFBFFFF4A000903FB
:100AB0000123090B1B051943094B10B5520D9A422E
:100AC00001DA002010BD064B34339A4203DC9A1A37
:100AD00000F086F810BD03495118884010BD000091
:100AE000FF030000CDFBFFFFC20FD207400040080C
:100AF0000BD0C10D0723DB01C91840020905400ACC
:100B00001143C20840071143704700200146704757
:100B100010B5002904DB0124E40740428C41214642
:100B2000002B04DB1C460123DB075242A3418B420E
:100B300000D1824210BD000010B5002904DB012461
:100B4000E40740428C412146002B04DB1C46012374
:100B5000DB075242A341994200D1904210BD0000F0
:100B6000CB0FDB07490010B5490802460A4307D0FE
:100B70000A0D07240903E401090B121B002A01DCFA
:100B8000002010BDC900440F0C43C100E018D2057D
:100B9000801800F0C9F810BD0122D207002800DB40
:100BA000101A002900DB511A814270470122D20736
:100BB000002800DB101A002900DB511A8842704718
:100BC00010B5202A04DB0146203A9140002010BDD8
:100BD000914020239C1A0346E3401943904010BDE6
:100BE00010B5202A04DB0846203AD040002110BD71
:100BF0000B46D340D0402024A21A91400843194606
:100C000010BD10B5202A06DBCB170846203A10414C
:100C1000C1170B4306E00B461341D0402024A21A13
:100C200091400843194610BD3A2800D2303820239D
:100C300002469A43412A01D310463738884201D3ED
:100C40000020C0437047000002681378511801600B
:100C50001846704710B5D1600449516104491162CA
:100C600000211161114600F0EDF910BD490C00089A
:100C7000311000084268002A08D001680B78491C2E
:100C8000002B03D0521E06C0184670470121C160D8
:100C9000881E70474268002A0BD0C3680168002B89
:100CA00007D183688B4204D0491E521C06C0002025
:100CB00070470020C0437047F7B5009C0F460026E0
:100CC0002578641C002D05D000F0AEF90068405D69
:100CD000C007F5D12B2D02D02D2D18D0641E39461A
:100CE0002046029A00F04AFB002F04D03968A14246
:100CF00001D1009939607105022400290BDA4042C4
:100D0000002803DD0EF0B0FD0460A007FEBD012049
:100D100080020643E3E70028F8DA0EF0A5FD046040
:100D20000048FEBDFFFFFF7F002904DA401C490098
:100D300001D140084000704770B40024050C05D173
:100D40001024000402D1002921D01124050E01D164
:100D500000020834050F01D10001241D850F01D1C7
:100D60008000A41C002801DB4000641C002908D07E
:100D700020252E1B0D46F540A14000D0012129431E
:100D8000084301061B1B000ADB1D02D5002070BCB6
:100D90007047DB05181880180029F8DA401C490054
:100DA000F5D170BC40084000704710B541000DD02F
:100DB0004100090E962909DC7E290ADC07DB410285
:100DC00005D0C00F7F21C007C905401810BD002005
:100DD00010BD9622541A20210A1B01469140E04082
:100DE000FFF7A2FFA04010BD10B5002B08DA0024C9
:100DF000401C614192185B411A4301D140084000F8
:100E000010BDF0B51FB482B005460C0003D00846F3
:100E10000EF0B6FC02E00EF0B3FC2030024600906B
:100E200021462846FFF7CCFE049B059A04460F4650
:100E300018431143084314D0184610431BD00098A0
:100E400040210A1A18460599FFF7CAFE05460E46C4
:100E5000009A05990498FFF7B3FE084305D00120D6
:100E600004E02046394607B0F0BD0020C117054315
:100E70000E432C43374300990E986305401A7905B9
:100E8000E40A00220C43FD0A0A3002D50020014684
:100E9000E9E70105101969410C9C0D9D0019694194
:100EA000FFF7A2FFDFE7FEB500231A461B1A8A41AF
:100EB00003DB0020014603B0F0BD4A000D03012111
:100EC0002D0B0905520D0D43D10702D100186D41BC
:100ED000521E5110FF31FF310131002704463E46BA
:100EE0003846009701910246012100200905FFF7CD
:100EF00077FEC3197141F818324684468E464A413E
:100F000061462846611A904104D36046241A9541EF
:100F100076461F46241900986D41401C00903428E5
:100F2000E1DDF91930467041091BA84103D20022C6
:100F3000D243134601E00022134601980105381CF4
:100F40007141FFF751FFB6E7F8B505464800400884
:100F50000C46284304D06000184A400D904201DD41
:100F60002846F8BD15493539884210DC88420BDB2C
:100F7000290D200308432903014305D0E00F104940
:100F8000C00741180020F8BD00200146F8BD161A20
:100F90004020821B28462146FFF712FE074600919B
:100FA000284621463246FFF71BFE3A46009BFFF7D4
:100FB0001BFF3246FFF704FEF8BD000033040000BB
:100FC0000000F03F4A0009030123090B1B051943E8
:100FD0000A4B10B5520D9A4202DA0020014610BDAC
:100FE000064B34339A4203DC9A1AFFF7F9FD10BD21
:100FF000034BD218FFF7E4FD10BD0000FF03000013
:10100000CDFBFFFF064C0125064E05E0E36807CC4B
:101010002B430C3C98471034B442F7D3FFF754F8F5
:10102000146F0108346F010800487047745C0108B0
:1010300010B50446FFF7F8FF0068005DC007C00F59
:1010400010BD0000F3B58DB000200A9001200B9078
:10105000002608460C300C46099062690121099867
:101060009047051E2ED0252D2DD0216A88470028B7
:1010700018D06269012109989047216A88470028A1
:10108000F7D1411E62690998904700E0761CA1697A
:101090000D988847216A88470028F7D1E1690D98A3
:1010A0008847DAE7A1690D9888470746A84201D129
:1010B000761CD2E7E1690D9888477F1C02D10A9817
:1010C000002877D049E1002762693D4639460998F2
:1010D00090472A280CD1626901210998904701257F
:1010E00006E00A214F433F18303FEBD41020054360
:1010F0006269012109989047014630390A2903D2D3
:101100009B498F42DEDCECE7E90600D4994F6C285E
:101110000AD04C2810D0682824D06A282ED07428F1
:101120000CD07A280AD00DE0626901210998904715
:101130006C2823D004211CE0202005436269012192
:1011400009989047A760656065284FD026DC58282D
:1011500039D01ADC452849D012DC252834D0412862
:10116000B0D143E06269012109989047682802D014
:1011700008210D43E6E70120C002DEE70220DCE79C
:10118000462833D047282CD130E05B2870D0612826
:101190002CD063286CD0642823D161E06F284FD015
:1011A00009DC662822D0672820D0692826D06E283E
:1011B00017D12EE0CDE070284DD073286FD0752860
:1011C0004ED078280DD154E0A1690D988847054686
:1011D000252800D16CE7E1690D9888476D1C00D186
:1011E0006DE7BAE00A224CE00A2252E001202346D1
:1011F0006A46C0430D99C046C046A3E02846402138
:1012000008436060A807234601D5002239E0002288
:101210003FE0E80700D020E72068011D216000685A
:10122000290501D5067018E7290701D5068014E7BE
:10123000A90703D5F117066041600EE706600CE7C9
:101240002846402108436060A807234601D50822AC
:1012500017E008221DE0484928460840606016E073
:101260002846402108436060A8072346BCD5B9E75B
:1012700015E02846402108436060A80707D52346AB
:1012800010220120C0430D99C046C0465AE02346B3
:1012900010220120C0430D99FFF748F852E00021C9
:1012A0000C910B460091632802D05B2807D043E0E5
:1012B000E80601D40120A060012000903CE06269B2
:1012C0000121099890475E2805D101200C90014624
:1012D0006269099890472169002906D10B4601AA45
:1012E0008F00491CD3510829FADB002835D0216929
:1012F00000290ED1C117C90E09184A11930001AA7D
:101300009A1849094901411A01201368884003438A
:10131000136062690121099890475D28E5D10C9816
:10132000002808D0002001AB81005A58401CD2434D
:101330005A500828F8DB01AB01202246C0430D9922
:10134000C046C04600280ADA401C06D10B98002887
:1013500003D00020C0430FB0F0BD0A98FBE7E907B7
:1013600002D10A99491C0A91361800200B9074E6A4
:10137000CCCCCC0CFFFFFF7FF1F7FFFFF7B582B0BD
:10138000029C00272078641C15460197302802D063
:10139000002D15D015E020780127641C782804D092
:1013A000582802D0002D09D00BE0002D01D0102DBF
:1013B00007D1002710252078641C02E0082500E0F2
:1013C0000A250026009610E00099012769430818B5
:1013D000020C294680B2714300908E183804864270
:1013E00001D3012001902078641C2946FFF71CFCE2
:1013F0000028E9DA0398002805D0002F01D0641EE8
:1014000000E0029C04600198002806D00EF02CFA3F
:1014100002210160C81E05B0F0BD009930040843E8
:10142000F9E770B58C180578401C6B075B0F01D18C
:101430000378401C2A1106D10278401C03E006788C
:101440000E70401C491C5B1EF9D12B0705D40023EC
:10145000521E0DD40B70491CFAE70378401CCB1ABE
:10146000921C03E01D780D70491C5B1C521EF9D5BF
:10147000A142D8D3002070BD38B5044606480549BE
:101480000068FEF735FE604300E0401E0090002833
:10149000FBD138BD40420F0080010020F8B5044662
:1014A000006881688907890F012902D10168C9078D
:1014B00022D18168114A10261140012500290ED140
:1014C0008168294381600120FFF7D6FF03F01EFBEE
:1014D00007460CE003F01AFBC01B0A2807D9A06DD1
:1014E0003043A065E06D2843E0650120F8BD206829
:1014F0000068C043C007EDD10020F8BD1700008090
:10150000F0B589B00C46074610220021684612F05B
:101510005DF86946224608460EF065FF6846007889
:1015200087260106684600290FDA00214318425C2D
:101530005B785200DB091A434254491C0F29F5DB42
:10154000C17B0246490071400DE000214318425C16
:101550005B785200DB091A434254491C0F29F5DB22
:10156000C17B02464900D173E21DF932516910294D
:1015700012D0017809061BD500214518435C6D780F
:101580005B00ED092B434354491C0F29F5DBC17B5C
:1015900003464900714019E000216218FF32013210
:1015A0005378455C491C6B4053701029F5DB26E0ED
:1015B00000214518435C6D785B00ED092B434354D3
:1015C000491C0F29F5DBC17B03464900D973E11D96
:1015D00055698023FA316B54002500E05D5453694E
:1015E0005B1C5361102BF9D300216218FF320132CA
:1015F0005378455C491C6B4053701029F5DB002182
:1016000062181046FF32E0300132437C5278491CA8
:10161000534043741029F3DB21461022F13104A812
:1016200011F0BCFF2246394604A80EF0DCFE102261
:101630000021684611F0CAFF09B0F0BD10B504469C
:1016400010220021F13011F0C1FFFF2000211530E0
:101650000151F022204611F0B9FF10BD0B4610B524
:101660000246102118460EF0E9FE10BDF0B5044602
:10167000FF308BB00F4601300890E11D4069FA3110
:101680000091103915460791002843D010210E1AF9
:10169000AE4200D316460099B2B24018394611F056
:1016A0007DFF0898089940698019486110283AD34D
:1016B000B54238D0002162181046FF32E0300132C6
:1016C000437C5278491C534043741029F3DB07993B
:1016D000224608460EF087FEBF19AD1B1AE0002017
:1016E0002118E0314A7C3B5C401C5A404A74102867
:1016F000F6DB102202A8079911F050FF02A922463A
:1017000008460EF070FE102202A9079811F046FF5D
:10171000103D1037102DE2D8AAB23946009811F0CA
:101720003DFF089845610BB0F0BD0000FFB5FF49D3
:10173000A1B08A7DC81DF9302D9E2E9D012A10D1A1
:1017400000228A7543662A9981662B99C166219980
:1017500081652299C165239901662C994667856741
:101760000167F34C1846616EFEF792FE0021C943F3
:10177000FEF762FF0746A16E2A98FEF789FE002158
:10178000C943FEF759FF2A90E16E2B98FEF780FEC1
:101790000021C943FEF750FF2B90A16D00912198C5
:1017A000FEF776FE0021C943FEF746FF0099FEF7DB
:1017B0006FFE0021C943FEF73FFF0099FEF768FE68
:1017C0000021C943FEF738FF2190216F00912C982A
:1017D000FEF75EFE0021C943FEF72EFF0099FEF7DB
:1017E00057FE0021C943FEF727FF0099FEF750FE80
:1017F0000021C943FEF720FF2C9067662A98A06657
:101800002B98E0662198A0652298E06523982066D1
:101810002C986667A5672067803CE16B03910846BA
:10182000FEF78FFE1D90216C02910398FEF789FE52
:101830000E90616C01910398FEF783FE0D90A16CF0
:1018400003980C46FEF77DFE0C9002990846FEF7C1
:1018500078FE0B9001990298FEF773FE0A902146DC
:101860000298FEF76EFE019909900846FEF769FEA0
:10187000089021460198FEF764FE2146079008462D
:10188000FEF75FFE2B9906900846FEF75AFE2A994E
:1018900000900846FEF755FE044639460846FEF716
:1018A00050FE2146FEF7F4FD0099FEF7F1FD11F020
:1018B0009BF9044601463846FEF743FE2490214634
:1018C0002A98FEF73EFE2A9021462B98FEF739FE15
:1018D00029462B900846FEF734FE07463146084657
:1018E000FEF72FFE2C9904460846FEF72AFE2146F5
:1018F000FEF7CEFD3946FEF7CBFD11F075F9044633
:1019000001462C98FEF71DFE2C9021463046FEF72E
:1019100018FE2D9021462846FEF713FE2E900D99B5
:101920000998FEF7B5FD04461F9001212E98FEF799
:1019300083FE1C9021461B90FEF703FEFFF7D4F8B0
:101940000E461A900C990A98FEF7F3FD04461E9075
:1019500001212D98FEF770FE189021461790FEF792
:10196000F0FDFFF7C1F8159116900698FFF7BCF847
:1019700005460C4605910898FFF7B6F800226D4B16
:1019800003910290FEF70EFF23462A46FEF704FF5E
:1019900004460F460191009001212C98FEF74CFE61
:1019A00012901190FFF7A0F822463B46FEF702FF87
:1019B000159B169AFEF74CFE33461A9AFEF748FE20
:1019C000FFF7CEF813900E990798FEF7B2FD014687
:1019D0001B98FEF7B6FDFFF787F80E4605990446FB
:1019E0002F460D460B98FFF77FF80022514BFEF76C
:1019F000D9FE3A462B4605910490FEF7CDFE0546EA
:101A00000F461798FFF770F82A463B46FEF7D2FEBE
:101A100007460D460C990A98FEF73AFD01461198C3
:101A2000FEF78FFDFFF760F83A462B46FEF710FEF3
:101A300022463346FEF70CFEFFF792F80646039B5C
:101A4000029A05990498FEF7A7FE05460C460291F6
:101A50001C98FFF749F823462A46FEF7ABFE0446DA
:101A600004910E990798FEF713FD01460E90189801
:101A7000FEF767FD07460D990998FEF75AFD0146E6
:101A80000D901298FEF75DFD3946FEF701FDFFF758
:101A90002BF82246049BFEF7DBFDFFF761F80446B6
:101AA00031460846FEF74DFD139906460846FEF7F7
:101AB00048FD3146FEF7ECFCFFF716F812F0B0FCDB
:101AC000FFF74EF8074601210D98FEF7B5FD099086
:101AD00001210E98FEF7B0FD07900B991D98FEF7B7
:101AE00028FD0899FEF725FD0699FEF7D1FC0A901E
:101AF000012120460D9EFEF79FFD31460B90FEF71B
:101B000020FDFEF7F1FF0591049001213846019E6A
:101B1000009CFEF791FD0746FEF7E6FF224633469E
:101B2000FEF748FE059B049A06E0000094010020A1
:101B3000940200200000E03FFEF78AFDFFF710F856
:101B400005900E990B98FEF7FCFC044638461E994A
:101B5000FEF7F7FC2146FEF79BFC029906462C4651
:101B60000D460B98FEF7C0FF22462B46FEF722FEDD
:101B700004460D4638461F99FEF7E3FCFEF7B4FF16
:101B800022462B46FEF764FDFEF7EAFF0546314686
:101B90002E98FEF7D6FC044629462D98FEF7D1FC78
:101BA0002146FEF7C6FC044607992B98FEF7C9FCB0
:101BB00007460A992A98FEF7C4FC3946FEF7B9FC95
:101BC0002146FEF765FC049029462C98FEF7B9FCE7
:101BD000044605992E98FEF7B4FC2146FEF7A9FCB1
:101BE00004460A992498FEF7ACFC054609992B98FF
:101BF000FEF7A7FC2946FEF79CFC2146FEF748FCB1
:101C0000089005992D98FEF79CFC044631462C98C7
:101C1000FEF797FC2146FEF78CFC044609992A98AA
:101C2000FEF78FFC054607992498FEF78AFC2946A3
:101C3000FEF77FFC2146FEF72BFC0746FE49049881
:101C4000FEF77FFCFD4E3146FEF77BFCFC4CE16C61
:101C5000FEF71EFC0546E064F7490898FEF771FCA4
:101C60003146FEF76EFC216DFEF712FC20650090F8
:101C7000F1493846FEF765FC3146FEF762FC616DBE
:101C8000FEF706FC06466065EE490498FEF759FC2F
:101C90002199FEF7FDFB2946FEF7FAFB0546E949C7
:101CA0000898FEF74EFC2299FEF7F2FB0099FEF72A
:101CB000EFFB2290E3493846FEF743FC2399FEF7F9
:101CC000E7FB3146FEF7E4FB2390A16C03910991F9
:101CD000FEF737FC616C0746029105912298FEF7EA
:101CE00030FC06460120216CC00768400191089134
:101CF000FEF727FC3146FEF71CFC3946FEF719FCBF
:101D00000021C943FEF798FC206607900C900999C2
:101D10002298FEF716FC074605992398FEF711FC5A
:101D2000E16B0646009128460691FEF70AFC314613
:101D3000FEF7AEFB3946FEF7FCFB0021C943FEF778
:101D40007BFC606604900D9028460999FEF7F9FB2C
:101D5000074608992398FEF7F4FB06460699229851
:101D6000FEF7EFFB3146FEF7E4FB3946FEF790FB4A
:101D70000021C943FEF760FCA0660A90074628468A
:101D80000599FEF7DEFB0B9008992298FEF7D9FB28
:101D9000064606992398FEF7D4FB3146FEF778FBFA
:101DA0000B99FEF7C6FB0021C943FEF745FCE06630
:101DB000A5490B90FEF7C5FB0999FEF769FB06469E
:101DC0001790A1482399FEF7B4FB31461090FEF717
:101DD000B8FB09909C493846FEF7B3FB0599FEF71E
:101DE00057FB1890064698482299FEF7A2FB314609
:101DF0001590FEF7A6FB074693490D98FEF7A1FB49
:101E00000899FEF745FB06461A908F492846FEF7CB
:101E100094FB31461190FEF794FB06468A490C98D4
:101E2000FEF78FFB0699FEF733FB87491B90FEF701
:101E300088FB3146FEF72CFB3946FEF729FB099952
:101E4000FEF726FB0021C943FEF7F6FB2067199039
:101E500017991598FEF775FB05907B49189E2398F6
:101E6000FEF716FB0C9031461490FEF76AFB0690C5
:101E700075491A98FEF765FB0746734928461B9E6D
:101E8000FEF706FB0D9031460890FEF75AFB3946E7
:101E9000FEF7FEFA0699FEF7FBFA0599FEF7F8FA47
:101EA0000021C943FEF7C8FB60670F9006901799A1
:101EB0000898FEF746FB139063491898FEF741FB1C
:101EC00009901A991098FEF73CFB07465E491B9E45
:101ED0002298FEF7DDFA059031461290FEF731FBAD
:101EE0003946FEF7D5FA0999FEF7D2FA1399FEF7AB
:101EF000CFFA0021C943FEF79FFBA0670E90089020
:101F000051491798FEF71DFB074618991198FEF7DF
:101F100018FB13901A991298FEF713FB06461B99AB
:101F20001498FEF70EFB3146FEF7B2FA1399FEF74E
:101F3000AFFA3946FEF7ACFA0021C943FEF77CFB45
:101F4000E06741490990FEF7FCFA0399FEF7A0FA11
:101F5000014613901098FEF7F4FA04463A4908989F
:101F6000FEF7EFFA0299FEF793FA014614901598DE
:101F7000FEF7E7FA064634490698FEF7E2FA0199B9
:101F8000FEF786FA014617901198FEF7DAFA07462F
:101F90002D491998FEF7D5FA0099FEF779FA2A49E2
:101FA0001690FEF7CEFA3946FEF772FA3146FEF782
:101FB0006FFA2146FEF76CFA0021C943FEF73CFB9D
:101FC0001F4980310860189013991598FEF7B9FAE7
:101FD000074614990C98FEF7B4FA06461A49179862
:101FE000FEF7AFFA044616990D98FEF7AAFA2146B5
:101FF000FEF74EFA3146FEF74BFA3946FEF748FA3D
:102000000021C943FEF718FB0D4C80346060089036
:10201000069013990D98FEF794FA0D900A491498BA
:10202000FEF78FFA074617991098FEF78AFA0646C8
:10203000169905980AE000000AD7A33C52491D3CB6
:10204000140200200000204252499D3BFEF779FA1D
:102050003146FEF71DFA3946FEF71AFA0D99FEF7DA
:1020600017FA0021C943FEF7E7FAA06007460D9072
:10207000FE491398FEF765FA064614991198FEF783
:1020800060FA119017990598FEF75BFA059016997A
:102090000C98FEF756FA0599FEF7FAF91199FEF732
:1020A000F7F93146FEF7F4F90021C943FEF7C4FA07
:1020B000E060EF491090FEF744FA0399FEF7E8F963
:1020C00006461790EA482399FEF733FA31461C90EA
:1020D000FEF737FA0C90E6493846FEF732FA0299D5
:1020E000FEF7D6F906461690E1482299FEF721FA46
:1020F00031461290FEF725FA0746DD490698FEF7AD
:1021000020FA0199FEF7C4F906461590D8492846E9
:10211000FEF713FA31461B90FEF713FA0646D44930
:102120001898FEF70EFA0099FEF7B2F9D04914900C
:10213000FEF707FA3146FEF7ABF93946FEF7A8F984
:102140000C99FEF7A5F90021C943FEF775FA206145
:10215000059017991298FEF7F4F90746C449169EA0
:102160002398FEF795F931461A90FEF7EAF90C909C
:10217000BF491598FEF7E5F91390BD492846149E0E
:10218000FEF786F905463146FEF7DBF91399FEF7AF
:102190007FF90C99FEF77CF93946FEF779F90021B1
:1021A000C943FEF749FA6061139028461799FEF774
:1021B000C8F91290AE491698FEF7C3F9064615996C
:1021C0001C98FEF7BEF90746A949149D2298FEF710
:1021D0005FF929461D90FEF7B4F93946FEF758F924
:1021E0003146FEF755F91299FEF752F90021C9431D
:1021F000FEF722FAA06106909D491798FEF7A1F913
:10220000074616991B98FEF79CF9054615991D98E7
:10221000FEF797F9064614991A98FEF792F9314697
:10222000FEF736F92946FEF733F93946FEF730F95D
:102230000021C943FEF700FAE0610C9001211898D3
:10224000FEF7FAF9044601211998FEF7F5F9079906
:10225000FEF71EF92146FEF71BF90599FEF718F95E
:10226000FEF742FC0022834BFEF7A4FA04460E461A
:102270000098FEF739FC33462246FEF7E9F9FEF7EF
:102280006FFC7D490746C86301210898FEF7D4F921
:1022900006460121784C0F98FEF7CEF90499FEF717
:1022A000F7F83146FEF7F4F81399FEF7F1F8FEF768
:1022B0001BFC00226F4BFEF77DFA05460E46019887
:1022C000FEF712FC2A463346FEF7C2F9FEF748FC39
:1022D0000646206401210D98FEF7AEF9054601215E
:1022E0000E98FEF7A9F90A99FEF7D2F82946FEF7EB
:1022F000CFF80699FEF7CCF8FEF7F6FB00225D4B0F
:10230000FEF758FA054601910298FEF7EDFB2A46C2
:10231000019BFEF79DF9FEF723FC05466064012151
:102320001098FEF789F9009001210998FEF784F9C9
:102330000B99FEF7ADF80099FEF7AAF80C99FEF795
:10234000A7F8FEF7D1FB00224A4BFEF733FA0090C4
:1023500001910398FEF7C8FB019B009AFEF778F9FC
:10236000FEF7FEFB0146A064FEF7EBF8294601905C
:102370000846FEF7E6F8054631460846FEF7E1F85E
:10238000064639460846FEF7DCF83146FEF780F887
:102390002946FEF77DF80199FEF77AF810F024FC43
:1023A00006460146E06BFEF7CCF8E063019031464B
:1023B000206CFEF7C6F8074620643146606CFEF7D5
:1023C000C0F8054660643146A06CFEF7BAF80646D0
:1023D000A06401210198FEF72FF92946FEF7B1F814
:1023E0000546032189073846FEF7ABF83146FEF76C
:1023F000A8F82946FEF74CF8FEF776FB0EF09CF89D
:102400001E4A1F4BFEF7D6F9FEF7AAFB309908606B
:10241000606C01210546FEF70FF929460490FEF78E
:1024200090F80546206C032189070746FEF789F8D6
:102430003946FEF786F82946FEF77BF87F21C90565
:10244000FEF726F8FEF750FB05460E460121E06B2D
:10245000FEF7F2F83946FEF774F807460498A16CC7
:10246000FEF76FF83946FEF713F80BE052499D3B33
:1024700052491D3CE3365A3F1402002066666666E8
:1024800066A64CC0FEF730FB2A4633460FF0B6FD79
:10249000264E254A3346FEF78DF9FEF761FB2F994C
:1024A0000860A16C00910846FEF74BF80590616C3E
:1024B00004910846FEF745F8216C0746084601914D
:1024C000FEF73FF8E16B054608460291FEF739F842
:1024D0002946FDF7DDFF3946FEF72BF80599FEF793
:1024E00028F8FEF701FB04460D4600990298FEF716
:1024F00028F8074604990198FEF723F83946FDF7B6
:10250000C7FF0121FEF798F8FEF7EEFA22462B46A8
:102510000FF074FD044A3346FEF74CF9FEF720FB3A
:102520003199086025B0F0BD6666666666A64C40C7
:10253000F7B523498022897C214B511ACDB2597CB1
:102540009B7C8026F31A0A46DEB2871E491C0124B2
:10255000C9B2761E3B000DF042F909060C060C12BA
:102560000C06062B3000164BAA4224D2154CA05460
:1025700003E0134BB24215DB1DE059740DE0104E21
:10258000AD1EAA4217DA0F4B985401985854491CB3
:10259000C8B202991954401C7074002408480121E3
:1025A000017408E0074CA05401986054491CE4E70A
:1025B000034BAA42F6D32046FEBD0220FEBD00001A
:1025C00038040020DE1C002010B586B014216846B7
:1025D000FDF73EFE0D48C26A01210A43C262C06A8D
:1025E000052408400590042000900020029003205C
:1025F0000191240703906946204602F0B5F90122B3
:102600000421204602F07BFA06B010BD0010024003
:1026100000B50B4887B0C16A01221143C162C06A8C
:102620006946104005901920000200900320019097
:10263000002002900520000702F096F907B000BDC7
:102640000010024000B50B4887B0C26A01210A435E
:10265000C262C06A019108400590192000020090F2
:1026600003200390029105206946000702F07CF9DF
:1026700007B000BD0010024000B50B4887B0C16A2A
:1026800001221143C162C06A6946104005901920B9
:102690000002009003200190002002900520000716
:1026A00002F062F907B000BD0010024000B587B02B
:1026B000FFF78AFF00F0F4FE0A48C26A01210A43CC
:1026C000C262C06A01910840059019200002009082
:1026D00003200390029105206946000702F044F9A7
:1026E00007B000BD0010024070B50526054636074C
:1026F00000220421304602F002FA012004F076F9AB
:10270000104C208001220421304602F0F8F904F038
:102710002DFA20880C49098848430C49FDF7FEFC36
:1027200060806088392148432F21FDF7E1FCA080BB
:102730006088392148432F21FDF7DAFCFEF73BF989
:10274000E86070BD880100203C030020FF0F0000FE
:1027500001780448024A4368D1540121017070474E
:10276000871500209003002010B5034812F0C0FB2D
:1027700002490020087010BD512700089003002076
:1027800010B51248017801290ED100210170104BBB
:1027900042689C5C012C08D00D2C09D00A2C07D073
:1027A0007F2A0DD0521C426010BD4160082009E014
:1027B000002AF9D099544160054811F0FDF810BD88
:1027C000416006200FF0E6FF10BD000090030020DE
:1027D00087150020F8B506460F460068FEF784F915
:1027E000044600200D46385EFEF7ECF80022054B4B
:1027F000FDF7E0FF22462B46FDF72AFFFEF7B0F972
:102800003060F8BD008076403EB50E4C6946227BB4
:102810000A70A27F8A70C870E06B0CF051FB0190C7
:10282000606C029020462030407869464870A07E57
:1028300009F0EEFB618D606C4143081AA16E4018EF
:10284000A0663EBD38040020FFB5044689B00020D4
:1028500003900890069021891646002915D0019012
:10286000626904922069002A04D000290FD00A4628
:1028700092B20392002900D00E46E168884215D337
:10288000039A61688018081A11E00220E7E72268BD
:102890006568135C471CAF4202D3451B6D1C00E00A
:1028A0003D46525D1202921C9A18E1E70020019900
:1028B000751807950C994D43854201D2002102E01D
:1028C0000799FDF715FCC8B20199884208D9217F04
:1028D000CA0700D106980690880701D5019800E044
:1028E0000698002E6AD00499491908186168884230
:1028F00064D8002798E0039808186168884200D3DC
:10290000401A20612189002911D121680E54616883
:10291000401C814200D8401A2268310A1154616873
:10292000401C814200D8401A6169891C616161685C
:102930000D1AB54200D33546B5420DD0B54202D28C
:10294000217F002908D0002D6AD0217FCA0730D00E
:102950002189002913D019E039460A9A7143891850
:10296000226810182A46FDF75AFC60694019606118
:1029700007990895002089B2751B039140E02368F0
:10298000FF22811E5A542168401E0A546069401972
:102990006061002008902189354600292AD12068ED
:1029A00005702168280A487061690220891C6161EC
:1029B00020E089071ED52189002902D000200DB012
:1029C000F0BD2168821E8D542268290A431ED1540D
:1029D00039460A9A71438918226810182A46FDF769
:1029E0001EFC6069401960610895A069751B401C58
:1029F000A061D4E70199691889B20391002121618E
:102A0000002D0DD0089A0A993B4689182268734315
:102A1000101859182A46FDF702FC606940196061D8
:102A2000A069401C7F1CA0610C982169874200D2DC
:102A300061E7019808186168884200D3401A21684C
:102A40004018BCE710B5029C01600021C160016123
:102A500041614260816103810477A00703D5002BA7
:102A600001D0481E10BD002010BD0000F0B5038944
:102A70000022002B09D0002300240C804469002C84
:102A800058D00289002A02D00DE00223F4E7C26880
:102A900004684668A55C571CB74200D3921B521CC1
:102AA000A25C1202AA1894B20C80027FD50729D02A
:102AB000920727D4204A944202D10289002A0AD0E0
:102AC000C468026994421DD90289002A1AD0456857
:102AD0002C1B944216D24468C2684569A21AAA1AED
:102AE00042610022C2600289002A0AD10268012CD8
:102AF000157802D86442641C00E00124125D1202C1
:102B0000AA180A80C5684468EA18A24200D3121BBA
:102B100006680F8892194669FF18F61B466106D0B1
:102B200009886918C918A14200D3091BC1608169CD
:102B3000491E81611046F0BDFFFF0000F0B503891A
:102B40000022002B0AD0002700230B804369002BB2
:102B500042D00389C268002B02D00DE00227F3E7C0
:102B600005684468531CAE5CA342134600D31B1B8C
:102B70005B1CEB5C1B02F3189CB20C80037FDD072F
:102B800023D09B0721D4154B9C4202D10389002BF3
:102B90000AD0C46803699C4217D90389002B14D05A
:102BA00045682C1B9C4210D200221B041B0C0BD12D
:102BB00043680468012B02D85B425B1C00E00123E0
:102BC000E35C24781B021B190B80D11942689142E7
:102BD00000D3891A00680A181046F0BDFFFF0000F4
:102BE000F1B584B000200190694602900870204F32
:102BF00004997C78002939D001256008E1072ED09E
:102C000041001C48405A010A6A46002001AB10707E
:102C10002E4686400E4204D0167898551678761CBB
:102C20001670401CC0B20828F2D31178002909D0D0
:102C30000020491E11F0BEF901A9085CE10040180E
:102C400004990870641CE4B2072C00D9002468467B
:102C50000078002807D07C70002005B0F0BD41004E
:102C60000448415CD0E778788442C6D10320F4E779
:102C7000240400209C1A0020FFB5002085B000909D
:102C8000054606460190002477000698C15B0120A6
:102C9000A04001422AD028190C21039048430799EB
:102CA0000958002922D00799411808200291085696
:102CB000021100070117059840B209F0C4FB002873
:102CC00014D00298407A010108980818C0680028BA
:102CD00004D00198401CC0B2019007E0009A0E9900
:102CE000039888540098401CC0B20090641CE4B261
:102CF000102CCAD31035761CEDB2F6B2482DC2D3D3
:102D00000F9901980870009809B0F0BD30B50A4CD1
:102D100003680A4DA34205D90B68AB4202DD138854
:102D20005B1C13800068A84205DD0868A04202D938
:102D30001088401E108030BD00002AC300002A43C6
:102D400030B587B014216846FDF782FA0320019060
:102D50000020029003204003104C0090E06A012103
:102D60000843E062E06A08400590052069460007D4
:102D700001F0FAFDE06A40084000E062606B012566
:102D8000AD052843606301F0C3FA01F0D1FA01F008
:102D9000C7FA606BA843606307B030BD0010024003
:102DA00010B512F047F810BD10B504686360836871
:102DB000102B036803D099600068C26010BD9A6050
:102DC0000068C16010BD10B503F078FF10BD0000B1
:102DD00010B5074801224179008A090401430448DB
:102DE000143001600146034800F006F810BD0000F1
:102DF0009803002054000808F7B51746002605463A
:102E0000EFF3108472B601F00BFD0DE00198B100F4
:102E100042582946022001F0D9FC00280BD084F347
:102E2000108806A00CF04CF9BE42EFDB01F0C4FCA8
:102E300084F31088FEBD2D1D761CF5E76572726F58
:102E40007220696E20454550524F4D20577269746B
:102E500065206572726F720D0000000010B50120D0
:102E600001F076FD022001F073FD10BD10B50420C5
:102E700001F06EFD082001F06BFD10BDF8B51020CB
:102E800001F066FD202001F063FD402001F060FDAF
:102E9000802001F05DFDFF20013001F059FD01208F
:102EA000400201F055FD0120800201F051FD01209A
:102EB000C00201F04DFD1C4C60691C4EC0041C4F4B
:102EC0000125002818DA3078002810D01948006849
:102ED00000280CD018480078C00708D1174800789F
:102EE000012804D116480068002800D17D70012017
:102EF0000003606103F00AFE0120400301F028FD99
:102F0000606940040AD53078002800D03D700D4833
:102F1000056001208003606103F0F8FD0120C0031B
:102F200001F016FDF8BD000000040140A4010020DE
:102F3000400300206803002078040020A001002046
:102F4000CC0100204802002070B5124886B0C16A4A
:102F500002242143C162C06A104E204005906003E4
:102F60000D4D0090019502946946304601F0FCFC3D
:102F7000E0020090694601950294304601F0F4FCAD
:102F800000220321072001F03BFE072001F02EFE66
:102F900006B070BD00100240000011100004005087
:102FA000FEE7000010B5084900224A6107494B6856
:102FB0004C1523434B604B68082423434B60C009E6
:102FC000C001026010BD00006C1000200020024013
:102FD00010B5214A00219069C305204804D54169F4
:102FE000022319434161911593699B0505D54369F6
:102FF0000124234343616302194393695B0505D5AB
:103000004369082423434361E301194393691B0582
:1030100005D543690424234343616302194393693B
:103020009B0405D54369102423434361630219437C
:1030300093699B0304D5446920231C4344611943CD
:103040009369DB0305D54369402423434361A00210
:103050000143916110BD0000002002406C1000206F
:1030600070B5054601F052FD0646184C0AE0681C92
:1030700008D0002D04D001F049FD801BA84201D9E1
:10308000032070BDA069C007F1D1A069800701D5F8
:103090000220A061A069C00511D4A06980050ED4EA
:1030A000A06940050BD4A069000508D4A06980047C
:1030B00005D4A069800302D4A069C00303D5FFF73B
:1030C00087FF012070BD002070BD0000002002407D
:1030D00010B5044601F01AFC0849002011C1012076
:1030E00008600749054801F0ADFB002803D005A0A2
:1030F0000BF0E6FFFBE701F0E1FB10BDF004002060
:10310000000000206572726F7220696E2045726146
:103110007365206F7065726174696F6E0A0D0000CF
:10312000F8B516460F460446002501F0EFFB0DE00A
:10313000A8003A582146022001F0CAFB002803D01B
:1031400005A00BF0BDFFFBE7241D6D1CB542EFDBB6
:1031500001F0B4FBF8BD00006572726F7220696EF9
:10316000205772697465206F7065726174696F6E43
:103170000A0D000070B50D46044601F0C7FB21465C
:103180002A46022001F0A4FB002803D003A00BF084
:1031900097FFFBE701F092FB70BD00006572726F54
:1031A0007220696E205772697465206F7065726154
:1031B00074696F6E0A0D0000016802484160406842
:1031C0007047000000000020FFB581B01D46144686
:1031D0000E460198FDF718FC3060FDF7E1FB019900
:1031E000FDF7ABF9164F3946FDF7ABF9FDF70CFCCF
:1031F0002060FDF7D5FB00903068FDF7D1FB019909
:10320000FDF79BF93946FDF79CF90099FDF791F917
:103210003946FDF796F92860FDF766FC0022094B58
:10322000FDF7C0FA084A094BFDF772FC06D20020F0
:1032300028606168241D3C2900D1206005B0F0BDE4
:103240000000704200004E407B14AE47E17A843F9C
:10325000F8B50020084D044607462602A95D01295D
:1032600004D17019401C00F0AFF9AF55641CE4B2F2
:10327000062CF2D3F8BD0000FC09002070B586B022
:10328000FFF7E6FF4F48504C0068264640360128BD
:103290006FD104AB03AA02A9206AFFF795FF254668
:1032A00020350498FDF720FC0191009028794E28E4
:1032B00060D046A147A0039B029A0BF001FF0028B3
:1032C000EFD1206AFDF710FC0B4629794E2953D027
:1032D0003EA1024644A00BF0F3FE0028F1D104AB5E
:1032E00003AA02A9A06AFFF76FFF0498FDF7FCFB91
:1032F00001910090287B452840D03EA13FA0039B30
:10330000029A0BF0DDFE0028EFD1A06AFDF7ECFB7E
:103310000246287B0B46452832D036A13CA00BF054
:10332000CFFE0028F1D1E06BFDF7DEFB3278009292
:1033300002460B4639A00BF0C3FE0028F3D1206BE8
:10334000FDF7D2FB02460B4639A00BF0B9FE002870
:10335000F5D1606BFDF7C8FB02460B4639A00BF0B8
:10336000AFFE0028F5D1211D0EC910290ADA083157
:1033700009E01EE037A19DE736A1AAE737A1BDE726
:1033800036A1CBE7103937A00BF09AFE0028EAD11E
:1033900039A06369A269E1690BF092FE0028F7D1B8
:1033A000094D6035EA78A97838A00BF089FE00282D
:1033B000F8D1F078022801D0032801D10020A063C1
:1033C00006B070BD7803002024070020536F757489
:1033D0006800000025733A253364202532642725D0
:1033E000352E32662000000025733A20252E3666E1
:1033F0000A0D0000576573740000000025733A251C
:10340000336420253264272530352E3266000000D3
:1034100025733A20252E36660A0D2000416C74690A
:10342000747564653A252E3166256320000000001E
:1034300053706565643A252E3166206B6D2F6820C8
:1034400000000000436F757273653A252E316620C7
:10345000000000004E6F72746800000045617374D4
:103460000000000054696D653A2532643A25303217
:10347000643A253032642000446174653A32302564
:103480003032642D25642D2564200000536174655D
:103490006C6C6974653A2532642F2532640A0D001C
:1034A00000B50B4887B0C26A02210A43C262C06AF3
:1034B00008400590202000900120019000200290FB
:1034C000032003906946034801F04EFA07B000BD9F
:1034D000001002400004005070B50E4CA079002886
:1034E00001D0002070BD0120A07100F039F80A4D14
:1034F00000220821284601F002FB00221021284664
:1035000001F0FDFA01222021284601F0F8FAA07905
:1035100070BD0000F40000200004005070B50E489B
:1035200086B0C26A02210A43C262C06A032408400C
:103530000590082000256A4631C2084E694630468B
:1035400001F012FA10206A4631C26946304601F095
:103550000BFA06B070BD00000010024000040050DD
:1035600070B5164886B0C26A02210A43C262C06AB8
:103570000124084005900820114E03250090019475
:10358000694603950294304601F0EEF91020009050
:103590000194694603950294304601F0E5F9202034
:1035A00000900194694603950294304601F0DCF9DD
:1035B00004490020887106B070BD00000010024070
:1035C00000040050F4000020F0B5014691B0401C0A
:1035D00002900978242909D102AA2A2110F004FFB7
:1035E000044602990FF0B8F8012802D0002011B06B
:1035F000F0BD204602AA2C21029410F0F5FEFEA197
:103600000390FCF744FE002805D1FD490120087015
:10361000FC4900200870FCA10398FCF738FEFC4C24
:10362000214610310F1F01910839089110312646AB
:1036300006911C36091F351D0591002829D0F5A1DA
:103640000398FCF724FE00287ED0F4A10398FCF731
:103650001EFE26463146603140360791002874D060
:10366000F0A10398FCF713FE0028F8D0EFA103980F
:10367000FCF70DFE002869D0EEA10398FCF707FEC9
:1036800000287CD0EDA10398FCF701FE0028F8D0BB
:1036900056E302AA2C21029810F0A6FE03900028FF
:1036A00012D001461422E748FCF708FE00280BD090
:1036B0000097221DE4A1089B0398FCF719FE142231
:1036C000E0480399FCF7CFFD02AA2C21029810F0E4
:1036D0008BFE002804D0007841287DD00020207087
:1036E00002AA2C21029810F07FFE002837D009A9E9
:1036F00000910CAB0BAAD8A1FCF7FAFD0998FDF7D5
:103700004FF9FDF7F1F90022D64BFDF7BBF80A900F
:1037100003910C98FDF744F9FDF7E6F90022D24B2E
:10372000FDF7B0F8074607910B98FDF739F9FDF75B
:10373000DBF93A46079BFCF78BFF039B0A9AFCF7E1
:1037400087FFFDF70DFA02E08CE02BE14DE22062ED
:10375000FDF7CAF902460B46C4A00BF0B1FC02AA61
:103760002C21029810F040FE002804D00078532845
:1037700000D04E20287102AA2C21029800E09AE283
:1037800010F032FE002835D010A900910FAB0EAA20
:10379000BAA1FCF7ADFD1098FDF702F9FDF7A4F909
:1037A0000022B04BFDF76EF8009007910F98FDF7DF
:1037B000F7F8FDF799F90022AB4BFDF763F80746E0
:1037C00003910E98FDF7ECF8FDF78EF93A46039B4E
:1037D000FCF73EFF079B00E042E0009AFCF738FF51
:1037E000FDF7BEF9A062FDF77FF902460B469FA0E8
:1037F0000BF066FC02AA2C21029810F0F5FD0028BF
:1038000004D00078572800D04520287302AA2C2124
:10381000029810F0E9FD00280AD00FF0EDFFFDF747
:1038200063F9994A994BFCF7C5FFFDF799F92063B5
:1038300002AA2C21029810F0D7FD002802D00FF028
:10384000DBFF606302AA2C21029810F0CDFD002856
:1038500005D000968EA1069B059AFCF749FD6FE204
:1038600001203CE702AA2C21029810F0BDFD039034
:10387000002812D0014614227248FCF71FFD0028D0
:103880000BD00097221D70A1089B0398FCF730FD18
:1038900014226C480399FCF7E6FC02AA2C2102983A
:1038A00010F0A2FD002804D00078412878D0002034
:1038B000207002AA2C21029810F096FD00282CD02E
:1038C00009A900910CAB0BAA63A1FCF711FD0998A3
:1038D000FDF766F8FDF708F90022624BFCF7D2FF0E
:1038E00007910A900C98FDF75BF8FDF7FDF80022B0
:1038F0005D4BFCF7C7FF074603910B98FDF750F8A7
:10390000FDF7F2F83A46039BFCF7A2FE079B0A9AE2
:10391000FCF79EFEFDF724F9206202AA2C210298F2
:1039200010F062FD002804D00078532800D04E200B
:10393000287102AA2C21029810F056FD002800D10F
:1039400058E710A900910FAB0EAA4CA1FCF7D0FCD0
:103950001098FDF725F8FDF7C7F80022414BFCF75A
:1039600091FF0A9007910F98FDF71AF8FDF7BCF840
:1039700000223D4BFCF786FF074603910E98FDF7AA
:103980000FF8FDF7B1F83A46039BFCF761FE079B81
:103990000A9AFCF75DFEFDF7E3F8A0622AE7FFE76D
:1039A000012085E702AA2C21029810F01DFD03904A
:1039B000002812D0014614222248FCF77FFC002880
:1039C0000BD00097221D20A1089B0398FCF790FCC8
:1039D00014221C480399FCF746FC02AA2C210298E9
:1039E00010F002FD00287DD00FA900910EAB0DAAAA
:1039F00019A1FCF77DFC51E0504D544B30303100A3
:103A0000A2010020F4000020474E52524D43000016
:103A1000240700204750524D4300000047504747BD
:103A200041000000474E47474100000047504753C0
:103A3000560000004750475341000000474E47538F
:103A400041000000E8090020253264253264253257
:103A5000642E2534640000002532642532642E254E
:103A600034640000804F224100004E4025733A200C
:103A7000252E3666B6C80A0D0000000025336425E1
:103A800032642E25346400006F1283C0CAA1FD3F4A
:103A90002532642532642532640000000F98FCF75B
:103AA0007FFFFDF721F80022AC4BFCF7EBFE009105
:103AB0000A900E98FCF774FFFDF716F80022A84B49
:103AC000FCF7E0FE074601910D98FCF769FFFDF752
:103AD0000BF83A46019BFCF7BBFD009B0A9AFCF7EA
:103AE000B7FD00E002E0FDF73BF8206202AA2C21BE
:103AF000029810F079FC002804D00078532800D0F8
:103B00004E20287102AA2C21029810F06DFC00288A
:103B10002CD00FA900910EAB0DAA9249FCF7E8FB3F
:103B20000F98FCF73DFFFCF7DFFF00228B4BFCF703
:103B3000A9FE039108900E98FCF732FFFCF7D4FF22
:103B40000022874BFCF79EFE074600910D98FCF77C
:103B500027FFFCF7C9FF3A46009BFCF779FD039B62
:103B6000089AFCF775FDFCF7FBFFA06202AA2C2166
:103B7000029810F039FC002804D00078572800D0B3
:103B80004520287302AA2C21029810F02DFC002851
:103B900002D00FF036FE707002AA2C21029810F0AD
:103BA00023FC002803D00FF02CFE0799887002AA8E
:103BB0002C21029810F018FC002802D00FF01CFEF7
:103BC000A06402AA2C21029810F00EFC002802D05A
:103BD0000FF012FEE06302AA2C21029810F004FC00
:103BE000002801D000783070AAE002AA2C210298A7
:103BF00010F0FAFB002803D00FF003FE5A4948707A
:103C000002AA2C21029810F0EFFB002803D00FF03D
:103C1000F8FD55498870544DA878012801D100203D
:103C2000E87002AA2C21029810F0DEFB002803D0D5
:103C30000FF0E7FD0799C870002602AA2C21029810
:103C400010F0D2FB002805D00FF0DBFDE978090168
:103C50000919486602AA2C21029810F0C5FB002819
:103C600005D00FF0CEFDE97809010919886602AA8E
:103C70002C21029810F0B8FB002805D00FF0C1FDF0
:103C8000E97809010919C86602AA2C21029810F0E6
:103C9000ABFB070005D00FF0B4FDE9780901091965
:103CA0000867E878401CE870002F49D0761CF6B20F
:103CB000042EC2D344E002AA2C21029810F094FBF7
:103CC000002802D00FF09DFDB07002AA2C210298AE
:103CD00010F08AFB002802D00FF093FDF070002551
:103CE00002AA2C21029810F07FFB002804D00FF0CC
:103CF00088FD6119403188756D1CEDB20C2DEFD334
:103D000002AA2C21029810F06FFB002804D00FF0BB
:103D100073FD15496064086102AA2C21029810F015
:103D200063FB002802D00FF067FDA06402AA2C21DB
:103D3000029810F059FB002802D00FF05DFDE064FE
:103D40000A49206A884201DD002020620849A06AF1
:103D5000884201DD0020A062012048E4804F22411A
:103D600000004E407C3A0008F40000200000B442FD
:103D70000000344330B519498A68012A1DD00C4629
:103D800025790023164A2C02242817D04D79FE2DC0
:103D900004D2A418641960706D1C4D71C868401C71
:103DA000C860FF2809D108790002135482184879A5
:103DB00012185370401C4871CB6030BD0120105563
:103DC0006D1CECB20C71052C00D90B710C792425FB
:103DD00024021355A41865704871DFE7F400002031
:103DE000FC0900200649800009580648091803D03C
:103DF000C14203D000207047012070470220704765
:103E000028570108702FFCFF10B5094A0021CB008C
:103E1000D458844207D89B189B68834203D9C800B2
:103E20008018007910BD491CC9B21529EFD3FEE7EF
:103E3000E44F010830B593B038216846FCF708FA22
:103E400001250024059508200A940090684601F099
:103E5000DBF9002801D0FFF7A3F81B491B4812C06B
:103E600004601B4984604160083802F08DF9002825
:103E700001D0FFF795F81421144802F0A8F80C209F
:103E800010900E9400220EA90F9511940F4802F085
:103E9000D5F8002801D0FFF783F800210B4802F085
:103EA000A1F9002801D0FFF77BF80A4CA06802288E
:103EB000FCD10021054802F0B9F9044802F04EF99E
:103EC000606813B030BD0000000801400C05002000
:103ED000FFFF000008000020884201D1C8B201E0C5
:103EE000401EC0B240B27047F8B5054604464035A2
:103EF000287D0026012808D00120287520688168C7
:103F00008907890F01290ED101E00220F8BD01685F
:103F1000C90708D0A06D20210843A0650126002014
:103F200028753046F8BDA16DFF220132914302226F
:103F30001143A165C1688907890F0091C16889088B
:103F40008900C1602068816892071143816000F098
:103F5000DDFD07460EE000F0D9FDC01B0A2809D997
:103F6000A06D0221884310210843A0650020287518
:103F70000120F8BD206880680028ECDB2068C1685B
:103F8000009A1143C160A06D80088000401CA065AC
:103F9000C5E70000F8B506460D464036317D0129DB
:103FA0000DD00121317501688A68520709D5816DEC
:103FB000202211438165002030750120F8BD0220C8
:103FC000F8BD174B6A68D80547109A42154C8A6AA3
:103FD0002B6812D05B035B0B1A438A622968490382
:103FE00005D5A1680143A1600A20FDF745FA2868BC
:103FF000800312D5A06838430EE05B035B0B9A4345
:104000008A622968490302D5A1688143A1602868B2
:10401000800302D5A068B843A06000203075F8BDC9
:1040200001100000002701400068006C704700008C
:1040300070B5040006D0A06D264600254036002845
:1040400002D006E0012070BDE5653575204600F020
:10405000D1F8A06DC00603D421688868400705D553
:10406000A06D10210843A0653575EBE7A06DFF2218
:104070000132904302221043A06588688207920FA4
:104080005A48012A02D10A68D2072BD10323626859
:104090009B079A4205D05B429A4202D05B009A424B
:1040A00009D10A69920092080A6121680A69636865
:1040B0001A430A610CE00A69920092080A61816859
:1040C0000F2292049143816081686268114381608C
:1040D0002168CA6818239A43CA602168CA68A3681D
:1040E0001A43CA6081680122520691438160816847
:1040F000228F52061143816020688168C90004D470
:10410000816801221207114381602068C168384A22
:104110001140C1602169E068022923D000210843D1
:10412000216A226B4903520011430843616B084323
:10413000A16989030843E169C90308432168CA6882
:104140001043C860A06A0146FF39C23905D0E16A50
:1041500008432168CA681043C860606A01210128C9
:1041600002D00BE00421DAE7206A002823D0A06DFA
:1041700020221043A065E06D0843E065206C012813
:1041800020681FD00169C90703D0016949084900A7
:10419000016120684169C908C9004161206841691D
:1041A000E26B11434161E565A06D80088000401C11
:1041B000A065002070BD2068C26801231B041A435B
:1041C000C260DBE70269FF239B009A43026120681B
:1041D0000269636CE66C1A43A36C33431A430261B1
:1041E000206802690A430261D3E70000002701400A
:1041F0001902FEFF7047F8B5044640692546403570
:104200000E4608280BD02068C068C00709D0A06DF2
:1042100020210843A065002028750120F8BD08274B
:1042200000E00C2700F072FC009011E0701C0FD031
:10423000002E05D000F06AFC0099401AB04207D960
:10424000A06D04210843A065002028750320F8BD57
:10425000206800683842E9D0A06D01214902084376
:10426000A0652068C16809058A0F0C21002A1AD1AF
:10427000226A002A17D10268120714D582685307F0
:104280000122002B08DB43688B434360A06D1302BF
:1042900098431043A06506E0A06D20231843A06555
:1042A000E06D1043E065A069002801D1206801603D
:1042B0000020F8BD70B504462168002089684907D0
:1042C00021D425464035297D01291CD0012129759D
:1042D000E169012904D02046FDF7E0F8002811D15A
:1042E000A16D0A4A1140FF2201321143A16500214C
:1042F000E165297522681C21116021688A68042300
:104300001A438A6070BD022070BD0000FEF1FFFFFD
:10431000024841684908490041607047005801401F
:1043200002484168042291434160704700580140AF
:1043300002484168022291434160704700580140A1
:1043400070B50024024620325179022903D004219D
:10435000C16301243CE001680B680E25AB430B6090
:1043600001680B685B085B000B601A4B016899429F
:1043700001D1012121E0174B1433994201D11021C1
:104380001BE0144B2833994201D1891515E0114BDC
:104390003C33994201D189140FE00E4B50339942BE
:1043A00002D10121090408E00A4B6433994202D189
:1043B0000121090501E001210906064B083B59606E
:1043C0000121517100211171816B002900D08847B2
:1043D000204670BD08000240F8B504469D480168BB
:1043E0009C4A9C4E9B4F0832206813041C36303781
:1043F000904201D108221EE0B04201D180221AE091
:10440000B84202D10122D20215E0924A44329042CF
:1044100002D10122D2030EE08E4A5832904201D1DD
:104420001A4608E08B4A6C32904202D10122D20532
:1044300001E00122D20625461140203500293BD05B
:104440000168090738D50168082291430160814954
:1044500020680831884201D108201EE0B04201D115
:1044600080201AE0B84202D10120C00215E079494B
:104470004431884202D10120C0030EE07549583111
:10448000884201D1184608E072496C31884202D155
:104490000120C00501E00120C0066E494860E06BC4
:1044A00001210843E0630420687100202871616BDA
:1044B000002901D02046884766480168654A20687F
:1044C00008321315904201D104221EE0B04201D1FE
:1044D00040221AE0B84201D11A4616E05D4A443241
:1044E000904202D1012292030FE05A4A5832904280
:1044F00002D10122920408E0564A6C32904202D165
:104500000122920501E001229206114238D0016891
:10451000490735D50168890603D4026804218A4316
:1045200002604C4920680831884201D104201EE015
:10453000B04201D140201AE0B84201D1184616E03D
:1045400044494431884202D1012080030FE04149AF
:104550005831884202D10120800408E03D496C3185
:10456000884202D10120800501E0012080063949FE
:10457000486005206871216B002901D020468847DA
:1045800034480168334A206808325315904201D1FB
:1045900002221EE0B04201D120221AE0B84201D12D
:1045A0001A4616E02B4A4432904202D101225203AD
:1045B0000FE0284A5832904202D10122520408E00A
:1045C000244A6C32904202D10122520501E00122BC
:1045D000520611423CD00168890739D50168890625
:1045E00003D401680222914301601A49206808310E
:1045F000884201D102201EE0B04201D120201AE001
:10460000B84201D1184616E012494431884202D11D
:10461000012040030FE00F495831884202D10120A8
:10462000400408E00B496C31884202D1012040056A
:1046300001E00120400607494860E06BE06301208B
:10464000687100202871E16A002901D0204688475E
:10465000F8BD00000000024070B5002805D00346F8
:1046600020335979002902D003E0012070BD0021D8
:10467000197102215971046822683749C5680A40D6
:10468000816846692943056935432943856929437A
:10469000C5692943056A2943114321602F492F4CDD
:1046A00002687831A24206D18A6A120912018A622E
:1046B0008A6A406849E0294C1434A24207D18A6AC8
:1046C000F024A2438A628A6A406800013DE0234CDC
:1046D0002834A24208D18A6A0F242402A2438A62A3
:1046E0008A6A4068000230E01C4C3C34A24208D187
:1046F0008A6A0F242403A2438A628A6A40680003FC
:1047000023E0164C5034A24208D18A6A0F242404B4
:10471000A2438A628A6A8088000416E00F4C6434DF
:10472000A24208D18A6A0F242405A2438A628A6AB7
:104730008088000509E08A4209D18A6A0F2424068C
:10474000A2438A628A6A0079000602438A620120D3
:104750005871002070BD00000FC0FFFF080002402C
:10476000F8B5044620300579012D1ED001250571CC
:104770000226467120680768AF4307602046FEF7AF
:1047800013FB20680168314301602068016804223E
:10479000114301602068016808221143016020680C
:1047A0000168294301600020F8BD0220F8BD01B571
:1047B0000098FEF708FB08BD034841680122114339
:1047C000416000207047000000200240F8B5124D03
:1047D0000746287C14460E46012807D0012028747D
:1047E0000E48FEF73DFC002802D00CE00220F8BD88
:1047F00000216961022F09D0012F09D0002F09D0B3
:104800000648FEF72DFC00212974F8BD3460FAE754
:104810003480F8E73470F6E76C10002050C30000D5
:1048200005484168C90705D00449C1600449C16011
:10483000002070470120704700200240EFCDAB8977
:1048400005040302F8B51A4E0546307C0F460128D0
:1048500007D0012030741748FEF702FC010002D097
:1048600021E00220F8BD0020C04338606C6814E0ED
:104870002046FEF797FB0F48FEF7F2FB01460E4875
:10488000426808239A434260426843159A43426053
:10489000002901D03C6006E08034A8686A68C00145
:1048A0008018A042E4D8002030740846F8BD00000B
:1048B0006C10002050C300000020024003484168F3
:1048C0000222114341600020704700000020024096
:1048D000F8B50C4C1646207C0F46012808D0012064
:1048E00020740948FEF7BCFB0025002802D006E032
:1048F0000220F8BD65613E600348FEF7B1FB2574F8
:10490000F8BD00006C10002050C300000948416849
:1049100089070CD54168C90703D00749C160074919
:10492000C16007490161074901610020704701200A
:104930007047000000200240EFCDAB890504030260
:10494000BFAE9D8C1615141310B502F0DFF810BD24
:1049500010B504494A69024202D04861FFF7F4FFEA
:1049600010BD000000040140F8B500230124A7E0B9
:1049700027469F403A4070D04D68022D01D0122D3D
:1049800014D1DD08AD002D1800952D6A5E07AC46E8
:10499000F50E0F26AE46AE406546B543AC460E69F1
:1049A0007546AE4065462E43009D2E624D68012D32
:1049B00005D0022D03D0112D01D0122D16D18568FE
:1049C0000326AC465D00AE46AE406546B543AC46F8
:1049D000CE687546AE4065462E43866046680D79C2
:1049E000BE43ED06ED0F9D403543456006685F0010
:1049F0000325BD40AE46AE430D79B446AE07B60FB3
:104A0000BE4065462E430660C6687546AE438D6857
:104A1000BD403543C5604D68ED0050D52B4D6E6BE4
:104A200026436E639E082A4DB6007519AC46AD68E4
:104A30009E07360F0F27B740BD4305273F07B842F3
:104A400001D100271AE0234FB84201D1012715E018
:104A5000214FB84202D1022710E030E01F4FB84288
:104A600001D103270AE01E4FB84201D1042705E017
:104A70001C4FB84201D1052700E00627B7402F435D
:104A80006546AF60184D2E684F689643FF0300D50A
:104A900016432E606E684F689643BF0300D51643D9
:104AA0006E60AE684F689643FF0200D51643AE6055
:104AB000EE684F689643BF0200D51643EE605B1C5C
:104AC0000A681546DD4000D052E7F8BD00100240EC
:104AD000000001400004005000080050000C00508D
:104AE00000100050001C0050000401400069084004
:104AF00000D00120704742694A4042617047002A55
:104B000001D08161704781627047000001480068F0
:104B1000704700008401002070B504000FD02168A8
:104B20001348086021681348086003CC416020687E
:104B3000083C21688860FFF7E9FF054608E001208E
:104B400070BDFFF7E3FF401B302801D9032070BD83
:104B50002068C0680028F4D120680269E1688A42B0
:104B600001D0016101E004490160002070BD000036
:104B7000CCCC000055550000AAAA000000680249EC
:104B80000160002070470000AAAA000002480168E6
:104B9000491C0160704700008401002010B50648E0
:104BA0000168022211430160032000F007F800F0C1
:104BB00007F8002010BD00000020024000207047D0
:104BC00010B50848816B02041143816300F02CF892
:104BD00000F022F80448016808221143016000F047
:104BE00013F810BD0010024000200240C106C90E9B
:104BF00001208840014908607047000000E100E0A2
:104C000010B504F049FE10BD0248016802151143B9
:104C1000016070470070004002480168421511436E
:104C20000160704700700040024801681022914303
:104C30000160704700700040094B1A6892089200AA
:104C400002431A600748026904239A43026101295A
:104C500003D040BF20BF20BF704730BF7047000067
:104C60000070004000ED00E00A4B1A6892089200C4
:104C700002431A60084803690422134303610129AF
:104C800006D040BF20BF20BF01699143016170473A
:104C900030BFF9E70070004000ED00E0F8B566496C
:104CA000074601250020ED03624B634A4031102F77
:104CB0006FD011DC012F77D0022F6CD0042F6BD076
:104CC000082F24D1C9680324240321407BD0BD02CE
:104CD0006C10A9427CD0A0E00326584C3604202F4B
:104CE0000BD0402F35D0FF3F012F10D1C968314084
:104CF00069D07C04A1426BD096E00B690969012759
:104D000031403F04B94203D1990559E02846F8BD26
:104D100001256D04A94203D19907F8D54848F8BD8B
:104D2000B142FCD111688903F9D51168032000054F
:104D3000014001200005091A09D0091A05D0814255
:104D400001D14048F8BD2046F8BD3F48F8BD3F4876
:104D5000F8BDC9680125AD06294006D0A942F7D1A2
:104D600091688907F4D53A48F8BD11688901FBD5E7
:104D7000D068D1688002374D000F2D5C0802810F8A
:104D8000D068491CC0030AD41068C00605D5204667
:104D900006E045E008E023E030E0184600E02E4859
:104DA0006843FBF7A5F9F8BDCC68A407A40F0CD0A5
:104DB000022C0DD0012C10D0032CF4D109698905E7
:104DC0000029A3DBF8BD16E002E000F0D1F9F9E715
:104DD00011684907F6D51846F4E700F0D9F9F1E76C
:104DE000CC680C26344006D0082CF1D0042CF4D02A
:104DF0000C2CE3D0E6E700F0ABF9E3E7CC68032640
:104E0000B6023440F7D00127FF02BC42E0D07A104E
:104E10009442E2D0B442D1D0D4E7A142DDD0D1E770
:104E2000916B4902E7D4CDE7012212049142D4D01C
:104E3000C8E700000024F4000010024000093D0013
:104E40008890000020A1070040420F0080841E00CF
:104E5000006CDC020C51010800127A00F8B504461F
:104E600000785E4D800672D55C4E0027403EB06BE8
:104E7000C00004D4B06BA9050843B06301275848AB
:104E80000168C90511D40168821511430160FFF75B
:104E90003DFE009005E0FFF739FE0099401A6428B6
:104EA00037D84F480068C005F5D532680321090599
:104EB00060680A400140914208D08103890F0329AC
:104EC00004D13168890301D50120F8BD2A69032185
:104ED00009040A4022D0084090421FD02078800662
:104EE0001CD528692A6988430121C9040A432A611B
:104EF0002A698A432A612861C0050FD5FFF706FE9B
:104F0000009008E0FFF702FE0099411A35488142FF
:104F100001D90320F8BD28698005F3D561688803AD
:104F2000800F032805D132680005824301400A43FF
:104F30003260286903226168120411400843286125
:104F4000002F04D0B06B012109078843B06320789B
:104F5000C00705D0E868A168800880000843E860C1
:104F60002078800705D5E8680C218843E16808436C
:104F7000E8602078400706D5E86803218902884365
:104F800021690843E8602078000706D5E868032116
:104F90000903884361690843E8602088C00506D595
:104FA000E868032109048843A1690843E860207880
:104FB000400606D5E868012189068843216A08432E
:104FC000E8602078000606D5E86803218904884354
:104FD000E1690843E8600020F8BD0000401002408D
:104FE0000070004088130000F8B5054653480E468F
:104FF0000068C007C00FB0420AD250480168490893
:105000004900314301600068C007C00FB0426FD152
:1050100028784B4C800705D5E068F0218843A968C3
:105020000843E0602878C00752D06868022817D08B
:10503000032818D02168012818D08905002957DADB
:10504000E168890889000143E160FFF75FFD696855
:105050000746022912D003291CD0012926D033E0AB
:1050600021688903EAE721688901E7E74907E5E75D
:10507000FFF74CFDC11B3348814223D8E06800078D
:10508000800F0228F4D123E0FFF740FDC11B2D481B
:10509000814217D8E0680007800F0328F4D117E099
:1050A000FFF734FDC11B274881420BD8E068000799
:1050B000800F0128F4D10BE0FFF728FDC11B214828
:1050C000814201D90320F8BDE0680007800FF3D1C9
:1050D0001A480168C907C90FB1420BD901684908CC
:1050E0004900314301600068C007C00FB04201D0E1
:1050F0000120F8BD2878400706D5E068072109029D
:105100008843E9680843E0602878000707D5E0682D
:105110000721C90288432969C9000843E06000F0FB
:1051200037F8E168084A0906090F515CC840074989
:1051300008600320FFF742FD0020F8BD0020024078
:105140000010024088130000FC500108800100207C
:10515000044805490068C968044A4905490F515C7B
:10516000C84070478001002000100240155101081E
:10517000044805490068C968044A8904490F515C1C
:10518000C8407047800100200010024015510108FE
:1051900010B5184AD1680C20084004280BD0082804
:1051A00010D00C2810D050680004410F0120C0031B
:1051B000491C884010BD1068C00601D50E4810BDBE
:1051C0000E4810BD0E4810BD88020E4B000F185C33
:1051D0000902D368890F491CDB0301D5084A05E0A1
:1051E0001268D20601D5044A00E0044A5043FAF797
:1051F0007FFF10BD0010024000093D000024F400B4
:1052000000127A000C510108F8B504460078FF4DF1
:10521000C0074CD0E8680007800F022807D0E86874
:105220000007800F032809D1E868C00306D5286865
:1052300080033CD56068002875D038E001206268A2
:105240000004824203D129680143296011E005234B
:1052500001211B0489049A422A6802D10A432A6068
:10526000F1E782432A602A68024000922868884356
:105270002860606800280DD0FFF748FC0646E44F20
:1052800004E0FFF743FC801BB8427DD82868800308
:10529000F7D50CE0FFF73AFC0646DD4F04E0FFF7D8
:1052A00035FC801BB842F0D828688003F7D42078FA
:1052B000800741D5E8681F270007800F3F020128BB
:1052C00007D0E8680007800F032809D1E868C00309
:1052D00006D42868400717D5E068012823D113E0D9
:1052E000E068002817D0296809229143014329600A
:1052F000FFF70CFC064604E0FFF708FC801B0228C1
:10530000C3D828684007F7D568682169B8430902FF
:105310000843686010E02868400840002860FFF7F4
:10532000F5FB064605E090E0FFF7F0FB801B022846
:10533000ABD828684007F7D42078C00676D5E8684F
:10534000B44E0007800F0BD0E06900285DD02868BC
:10535000FF21013108432860FFF7D8FB074644E0EE
:105360002868800502D5E06900286ED0606A696807
:105370003140884212D905F0CDFD0028AED16868D1
:10538000616AB043084300E0E4E068606868218C2B
:105390000002000A0906084368600FE06968B1432B
:1053A000014369606868218C0002000A090608430D
:1053B0006860606A05F0AEFD00288FD1606A410B1D
:1053C0000120C003491C8840E968934A0906090F77
:1053D000515CC840914908600320FFF7EFFB25E0CE
:1053E000FFF794FBC01B02288AD828688005F7D5F0
:1053F0006868616AB043084368606868218C00028D
:10540000000A09060843686010E02968FF2001309F
:1054100081432960FFF77AFB064604E0FFF776FB3D
:10542000801B022884D828688005F7D420787C4E19
:10543000000723D560690028306910D00121084396
:105440003061FFF763FB074605E009E1FFF75EFB0C
:10545000C01B02287ED830698007F7D50EE04008CF
:1054600040003061FFF752FB074604E0FFF74EFBB8
:10547000C01B02286ED830698007F7D42078400717
:1054800061D5A86B0027C00005D4A86B01210907CE
:105490000843A863012763480168C90511D401685E
:1054A000821511430160FFF731FB009005E0FFF723
:1054B0002DFB0099401A64284CD85A480068C00552
:1054C000F5D5FF20A2680130824203D13169014342
:1054D000316111E001218902002A07D005231B0256
:1054E0009A4203D132690A433261EFE7326982435B
:1054F0003261306988433061A06800280ED0FFF720
:1055000005FB009006E0FFF701FB0099411A4048B7
:1055100081421FD830698005F5D50DE0FFF7F6FA16
:10552000009006E0FFF7F2FA0099411A38488142EC
:1055300010D830698005F5D4002F04D0A96B012064
:1055400000078143A9632078800630D53649A069D9
:105550004A1400E07DE0002816D0AB680120034328
:10556000AB606B6B03436B63086A10430862FFF721
:10557000CDFA064604E0FFF7C9FA801B022868D876
:10558000A8688007F7D512E0A86840084000A86026
:10559000086A90430862FFF7B9FA064604E0FFF78D
:1055A000B5FA801B022854D8A8688007F7D4A06AEF
:1055B000002853D0E9680907890F032950D0012634
:1055C00036060228286805D0B0432860FFF79EFA07
:1055D000044640E0B0432860FFF798FA074604E02D
:1055E000FFF794FAC01B022833D828688001F7D44B
:1055F000216BE06AEA680843616BFD231B049A4350
:1056000011430843E860286830430FE0001002406F
:105610008813000000E00000FC5001088001002019
:105620004010024000700040000001402860FFF779
:105630006DFA044604E0FFF769FA001B022808D857
:1056400028688001F7D509E0FFF760FA001B0228FF
:1056500001D90320F8BD28688001F5D40020F8BDE9
:105660000120F8BD30B5014620310A78012A15D055
:1056700001220A7002234B700468CA236362046823
:105680005323636203689C6820252C439C60006858
:10569000FF2343624A700020087030BD022030BDF5
:1056A00010B509F02FFC10BDF8B5054604462035AD
:1056B000287801281DD001202870022068702268F7
:1056C000CA205062226853205062FF200130002619
:1056D000FF2781421CD121688A6882438A60206842
:1056E00081680122120391438160FFF70FFA009055
:1056F00009E00220F8BDFFF709FA0099411A7D2060
:10570000C00081421BD82068C068C007F3D020E0E9
:10571000206881680122520291438160206881687B
:10572000120191438160FFF7F1F900900DE0FFF75E
:10573000EDF90099411A7D20C000814205D9206809
:105740004762032068702E70F8BD2068C06880072B
:10575000EDD520684762012068702E700020F8BDEA
:1057600010B500680B464068C021C94301400002E3
:10577000000ECC04D870E40E5C708C06A40E0904F4
:10578000490F9C701970002A0AD105F0FFFBD870F0
:10579000587805F0FBFB5870987805F0F7FB987087
:1057A000002010BD30B50B460168896A5960016858
:1057B00009694904490C9960006804680F4821464A
:1057C000014088024D04800E18706D0E49065D7010
:1057D000490E99706102490E40242140D970002A77
:1057E0000AD105F0D3FB1870587805F0CFFB58703C
:1057F000987805F0CBFB9870002030BD7F7F7F004C
:1058000070B5040005D0254620356878002802D000
:1058100006E0012070BD00202870204600F042F80C
:10582000022068702168CA204862216853204862BB
:10583000204605F0BEFBFF210028206803D041620E
:1058400004206870E5E78268154B1A408260226880
:1058500090686368A66918432369334318439060CE
:105860002268E06810612068026923891B041A43DA
:1058700002612068C26880239A43C2602068C26CBB
:1058800092089200C264E269606902432068C36CB6
:105890001A43C2642068416201206870002070BD14
:1058A000BFFF8FFF00B597B00420009000200A9042
:1058B000FF20013002906846FFF7A6FC002801D0C7
:1058C000FDF76EFB20200E90C0020F900EA8FFF790
:1058D000C5FA002801D0FDF763FB084801690122E1
:1058E000920411430161002211460220FFF788F95A
:1058F0000220FFF77BF917B000BD00004010024006
:10590000FEB506460446203630780B46012842D0C4
:10591000012030700220707020681D46002720355D
:105920008068002A39D0400655D5187805F02EFB3E
:10593000287805F02BFB19789878090408435978E2
:10594000DA7809021204114308432978090608434A
:10595000D969084359690843054699695868084355
:1059600000902168CA204862216853204862FF20C5
:105970005A6A0130802182424AD122689368834367
:1059800093602268D0680840FF388238D060FFF703
:10599000BDF8019029E00220FEBD400600D4DF7072
:1059A000187805F0FBFA0204587805F0F7FA0002BF
:1059B0000243987805F0F2FA0243D87800040243D3
:1059C000287805F0EBFA00060243D86902435869CB
:1059D00002431546C1E7DF70AAE7FFF797F8019980
:1059E000411A7D20C00081422AD82068C068C007C3
:1059F000F3D02068C56121680098486420688168F8
:105A0000FF2201321143816020688168120130E079
:105A10002068826801235B029A4382602068C26822
:105A20000A401D495118C160FFF770F801900EE05F
:105A3000FFF76CF80199411A7D20C000814206D918
:105A40002168FF204862032070703770FEBD206817
:105A5000C0688007ECD520680562216800988864DA
:105A600020688168012252021143816020688168A8
:105A700012011143816009480268012149040A4367
:105A8000026082680A4382602168FF204862012028
:105A9000707037700020FEBD7FFDFFFF00040140E5
:105AA000F8B505460446203528780B46012815D060
:105AB00001202870022068705878002A10D005F064
:105AC00065FA987805F062FAD8789E780004064363
:105AD0005878197800024903084316E00220F8BDFF
